{
  "contractName": "NFTBalances",
  "abi": [
    {
      "inputs": [],
      "payable": false,
      "stateMutability": "nonpayable",
      "type": "constructor"
    },
    {
      "constant": true,
      "inputs": [
        {
          "name": "tokenAddr",
          "type": "address"
        },
        {
          "name": "addr",
          "type": "address"
        }
      ],
      "name": "getTokenBalance",
      "outputs": [
        {
          "name": "bal",
          "type": "uint256"
        }
      ],
      "payable": false,
      "stateMutability": "view",
      "type": "function"
    },
    {
      "constant": true,
      "inputs": [
        {
          "name": "tokenAddr",
          "type": "address"
        },
        {
          "name": "owner",
          "type": "address"
        },
        {
          "name": "tokenId",
          "type": "uint256"
        }
      ],
      "name": "tokenOfOwnerByIndex",
      "outputs": [
        {
          "name": "token",
          "type": "uint256"
        }
      ],
      "payable": false,
      "stateMutability": "view",
      "type": "function"
    },
    {
      "constant": true,
      "inputs": [
        {
          "name": "number",
          "type": "uint256"
        }
      ],
      "name": "getByteSize",
      "outputs": [
        {
          "name": "",
          "type": "uint8"
        }
      ],
      "payable": false,
      "stateMutability": "view",
      "type": "function"
    },
    {
      "constant": true,
      "inputs": [
        {
          "name": "_tokenAddresses",
          "type": "address[]"
        },
        {
          "name": "_owner",
          "type": "address"
        }
      ],
      "name": "getTokenBalances",
      "outputs": [
        {
          "name": "",
          "type": "bytes"
        }
      ],
      "payable": false,
      "stateMutability": "view",
      "type": "function"
    },
    {
      "constant": true,
      "inputs": [
        {
          "name": "_tokenAddress",
          "type": "address"
        },
        {
          "name": "_owner",
          "type": "address"
        },
        {
          "name": "idxOffset",
          "type": "uint256"
        },
        {
          "name": "count",
          "type": "uint256"
        }
      ],
      "name": "getOwnedTokens",
      "outputs": [
        {
          "name": "",
          "type": "bytes"
        }
      ],
      "payable": false,
      "stateMutability": "view",
      "type": "function"
    }
  ],
  "bytecode": "0x608060405234801561001057600080fd5b5061099e806100206000396000f30060806040526004361061006d576000357c0100000000000000000000000000000000000000000000000000000000900463ffffffff168063533c279a146100725780636b42bf2f146100b95780637bca388c1461013a578063c3fae3621461022a578063c489744b14610329575b600080fd5b34801561007e57600080fd5b5061009d600480360381019080803590602001909291905050506103a0565b604051808260ff1660ff16815260200191505060405180910390f35b3480156100c557600080fd5b50610124600480360381019080803573ffffffffffffffffffffffffffffffffffffffff169060200190929190803573ffffffffffffffffffffffffffffffffffffffff16906020019092919080359060200190929190505050610418565b6040518082815260200191505060405180910390f35b34801561014657600080fd5b506101af600480360381019080803573ffffffffffffffffffffffffffffffffffffffff169060200190929190803573ffffffffffffffffffffffffffffffffffffffff16906020019092919080359060200190929190803590602001909291905050506104c4565b6040518080602001828103825283818151815260200191508051906020019080838360005b838110156101ef5780820151818401526020810190506101d4565b50505050905090810190601f16801561021c5780820380516001836020036101000a031916815260200191505b509250505060405180910390f35b34801561023657600080fd5b506102ae60048036038101908080359060200190820180359060200190808060200260200160405190810160405280939291908181526020018383602002808284378201915050505050509192919290803573ffffffffffffffffffffffffffffffffffffffff16906020019092919050505061070f565b6040518080602001828103825283818151815260200191508051906020019080838360005b838110156102ee5780820151818401526020810190506102d3565b50505050905090810190601f16801561031b5780820380516001836020036101000a031916815260200191505b509250505060405180910390f35b34801561033557600080fd5b5061038a600480360381019080803573ffffffffffffffffffffffffffffffffffffffff169060200190929190803573ffffffffffffffffffffffffffffffffffffffff1690602001909291905050506108c5565b6040518082815260200191505060405180910390f35b600080600090505b6000831415156103ca5780806001019150506001839060020a900492506103a8565b600060088260ff168115156103db57fe5b0660ff1614156103fc5760088160ff168115156103f457fe5b049150610412565b600160088260ff1681151561040d57fe5b040191505b50919050565b60008060405180807f746f6b656e4f664f776e65724279496e64657828616464726573732c75696e7481526020017f323536290000000000000000000000000000000000000000000000000000000081525060240190506040518091039020905060405181815284600482015283602482015260208160448360008a620249f0f18015156104a557600093505b60008111156104b357815193505b602082016040525050509392505050565b606060008060006060600060606000808c6000813b905060008163ffffffff16111515610559576040517f08c379a000000000000000000000000000000000000000000000000000000000815260040180806020018281038252600e8152602001807f4e6f74206120636f6e747261637400000000000000000000000000000000000081525060200191505060405180910390fd5b6021995060208a01995061056d8f8f6108c5565b98508b9750888c8e011115610582578c890397505b876040519080825280602002602001820160405280156105b15781602001602082028038833980820191505090505b509650600095505b87861015610624576105ce8f8f8f8901610418565b87878151811015156105dc57fe5b906020019060200201818152505060018a019950610610878781518110151561060157fe5b906020019060200201516103a0565b60ff168a01995085806001019650506105b9565b896040519080825280601f01601f1916602001820160405280156106575781602001602082028038833980820191505090505b50945089935061066984600187610944565b60018403935061067a848987610968565b602084039350600095505b878610156106fa576106ad878781518110151561069e57fe5b906020019060200201516103a0565b92506106bd848460ff1687610968565b6001840393506106e58488888151811015156106d557fe5b9060200190602002015187610968565b8260ff16840393508580600101965050610685565b849a5050505050505050505050949350505050565b606060006060600060606000806021955060208601955088516040519080825280602002602001820160405280156107565781602001602082028038833980820191505090505b509450600093505b88518410156107de57610788898581518110151561077857fe5b90602001906020020151896108c5565b858581518110151561079657fe5b90602001906020020181815250506001860195506107ca85858151811015156107bb57fe5b906020019060200201516103a0565b60ff1686019550838060010194505061075e565b856040519080825280601f01601f1916602001820160405280156108115781602001602082028038833980820191505090505b50925085915061082382600185610944565b600182039150610835828a5185610968565b602082039150600093505b88518410156108b657610869858581518110151561085a57fe5b906020019060200201516103a0565b9050610879828260ff1685610968565b6001820391506108a182868681518110151561089157fe5b9060200190602002015185610968565b8060ff16820391508380600101945050610840565b82965050505050505092915050565b60008060405180807f62616c616e63654f662861646472657373290000000000000000000000000000815250601201905060405180910390209050604051818152836004820152602081602483600089620249f0f180151561092657600093505b600081111561093457815193505b6020820160405250505092915050565b60008015158315151461095857600161095b565b60005b9050808483015250505050565b81838201525050505600a165627a7a723058202824abed7a9e8e7361c7c83b04b2d56654a72b16a38bbca4f93109605dd952870029",
  "source": "pragma solidity ^0.4.24;\nimport \"../Seriality/Seriality.sol\";\nimport \"./DummyERC721Token.sol\";\ncontract NFTBalances is Seriality{\n    constructor() public {}\n    modifier only_contract(address addr) {\n        uint32 size;\n        assembly {\n            size := extcodesize(addr)\n        }\n        require(size > 0, \"Not a contract\");\n        _;\n    }\n    function getTokenBalance(address tokenAddr, address addr) public view returns (uint bal) {\n        bytes4 sig = bytes4(keccak256(\"balanceOf(address)\"));\n        assembly {\n            // move pointer to free memory spot\n            let ptr := mload(0x40)\n            // put function sig at memory spot\n            mstore(ptr,sig)\n            // append argument after function sig\n            mstore(add(ptr,0x04), addr)\n\n            let result := call(\n              150000, // gas limit\n              tokenAddr,  // to addr. append var to _slot to access storage variable\n              0, // not transfer any ether\n              ptr, // Inputs are stored at location ptr\n              0x24, // Inputs are 36 bytes long\n              ptr,  //Store output over input\n              0x20) //Outputs are 32 bytes long\n\n             if iszero(result) {\n                 bal := 0 // return 0 on error and 0 balance\n             }\n             if gt(result, 0) {\n                 bal := mload(ptr) // Assign output to answer var\n             }\n            mstore(0x40,add(ptr,0x20)) // Set storage pointer to new space\n        }\n    }\n    function tokenOfOwnerByIndex(address tokenAddr, address owner, uint tokenId) public view returns (uint token) {\n        bytes4 sig = bytes4(keccak256(\"tokenOfOwnerByIndex(address,uint256)\"));\n        assembly {\n            // move pointer to free memory spot\n            let ptr := mload(0x40)\n            // put function sig at memory spot\n            mstore(ptr,sig)\n            // append argument after function sig\n            mstore(add(ptr,0x04), owner)\n            // append argument after first parameter\n            mstore(add(ptr,0x24), tokenId)\n\n            let result := call(\n              150000, // gas limit\n              tokenAddr,  // to addr. append var to _slot to access storage variable\n              0, // not transfer any ether\n              ptr, // Inputs are stored at location ptr\n              0x44, // Inputs are 36 bytes long\n              ptr,  //Store output over input\n              0x20) //Outputs are 32 bytes long\n\n             if iszero(result) {\n                 token := 0 // return 0 on error\n             }\n             if gt(result, 0) {\n                 token := mload(ptr) // Assign output to answer var\n             }\n            mstore(0x40,add(ptr,0x20)) // Set storage pointer to new space\n        }\n    }\n    function getByteSize(uint number) public view returns(uint8) {\n        uint8 bitpos = 0;\n        while(number != 0){\n            bitpos++;\n            number = number >> 1;\n        }\n        if(bitpos % 8 == 0) return (bitpos/8);\n        else return (bitpos/8)+1;\n    }\n    function getTokenBalances(address[] memory _tokenAddresses, address _owner) public view returns (bytes memory) {\n        uint bufferSize = 33; //define start + Data length\n        bufferSize += 32; //to save the itemcount\n        uint[] memory tokenBalances = new uint[](_tokenAddresses.length);\n        for(uint i = 0; i < _tokenAddresses.length; i++){\n            tokenBalances[i] = getTokenBalance(_tokenAddresses[i], _owner);\n            bufferSize += 1; //save the bytesize\n            bufferSize += getByteSize(tokenBalances[i]);\n        }\n        bytes memory result = new bytes(bufferSize);\n        uint offset = bufferSize;\n    \t//serialize\n        boolToBytes(offset, true, result); \n        offset -= 1;\n        uintToBytes(offset, _tokenAddresses.length, result); \n        offset -= 32;\n        for(i = 0; i < _tokenAddresses.length; i++){\n            uint8 numBytes = getByteSize(tokenBalances[i]);\n            uintToBytes(offset, numBytes, result); \n            offset -= 1;\n            uintToBytes(offset, tokenBalances[i], result); \n            offset -= numBytes;\n        }\n        return result;\n    }\n    function getOwnedTokens(address _tokenAddress, address _owner, uint idxOffset, uint count) public view only_contract(_tokenAddress) returns (bytes memory) {\n        uint bufferSize = 33; //define start + Data length\n        bufferSize += 32; //to save the itemcount\n        uint tokenBalance = getTokenBalance(_tokenAddress, _owner);\n        uint itemCount = count;\n        if((idxOffset+count)> tokenBalance) {\n            itemCount =  tokenBalance - idxOffset;\n        }\n        uint[] memory ownedTokens = new uint[](itemCount);\n        for(uint i = 0; i < itemCount; i++){\n            ownedTokens[i] = tokenOfOwnerByIndex(_tokenAddress, _owner, i+idxOffset);\n            bufferSize += 1; //save the bytesize\n            bufferSize += getByteSize(ownedTokens[i]);\n        }\n        bytes memory result = new bytes(bufferSize);\n        uint offset = bufferSize;\n    \t//serialize\n        boolToBytes(offset, true, result); \n        offset -= 1;\n        uintToBytes(offset, itemCount, result); \n        offset -= 32;\n        for(i = 0; i < itemCount; i++){\n            uint8 numBytes = getByteSize(ownedTokens[i]);\n            uintToBytes(offset, numBytes, result); \n            offset -= 1;\n            uintToBytes(offset, ownedTokens[i], result); \n            offset -= numBytes;\n        }\n        return result;\n    }\n}",
  "sourcePath": "/home/kvhnuke/GitHub/utility-contracts/contracts/nft-balances/NFTBalances.sol",
  "compiler": {
    "name": "solc",
    "version": "0.4.26+commit.4563c3fc.Emscripten.clang"
  },
  "schemaVersion": "3.0.11",
  "updatedAt": "2019-07-11T20:34:24.922Z",
  "devdoc": {
    "methods": {}
  },
  "userdoc": {
    "methods": {}
  }
}