{
  "contractName": "NFTBalances",
  "abi": [
    {
      "inputs": [],
      "stateMutability": "nonpayable",
      "type": "constructor"
    },
    {
      "inputs": [
        {
          "internalType": "address",
          "name": "tokenAddr",
          "type": "address"
        },
        {
          "internalType": "address",
          "name": "addr",
          "type": "address"
        }
      ],
      "name": "getTokenBalance",
      "outputs": [
        {
          "internalType": "uint256",
          "name": "bal",
          "type": "uint256"
        }
      ],
      "stateMutability": "nonpayable",
      "type": "function"
    },
    {
      "inputs": [
        {
          "internalType": "address",
          "name": "tokenAddr",
          "type": "address"
        },
        {
          "internalType": "address",
          "name": "owner",
          "type": "address"
        },
        {
          "internalType": "uint256",
          "name": "tokenId",
          "type": "uint256"
        }
      ],
      "name": "tokenOfOwnerByIndex",
      "outputs": [
        {
          "internalType": "uint256",
          "name": "token",
          "type": "uint256"
        }
      ],
      "stateMutability": "nonpayable",
      "type": "function"
    },
    {
      "inputs": [
        {
          "internalType": "uint256",
          "name": "number",
          "type": "uint256"
        }
      ],
      "name": "getByteSize",
      "outputs": [
        {
          "internalType": "uint8",
          "name": "",
          "type": "uint8"
        }
      ],
      "stateMutability": "pure",
      "type": "function"
    }
  ],
  "bytecode": "0x608060405234801561001057600080fd5b50610333806100206000396000f3fe608060405234801561001057600080fd5b50600436106100415760003560e01c8063533c279a146100465780636b42bf2f1461008e578063c489744b14610110575b600080fd5b6100726004803603602081101561005c57600080fd5b8101908080359060200190929190505050610188565b604051808260ff1660ff16815260200191505060405180910390f35b6100fa600480360360608110156100a457600080fd5b81019080803573ffffffffffffffffffffffffffffffffffffffff169060200190929190803573ffffffffffffffffffffffffffffffffffffffff169060200190929190803590602001909291905050506101f5565b6040518082815260200191505060405180910390f35b6101726004803603604081101561012657600080fd5b81019080803573ffffffffffffffffffffffffffffffffffffffff169060200190929190803573ffffffffffffffffffffffffffffffffffffffff16906020019092919050505061025c565b6040518082815260200191505060405180910390f35b600080600090505b600083146101ac578080600101915050600183901c9250610190565b600060088260ff16816101bb57fe5b0660ff1614156101db5760088160ff16816101d257fe5b049150506101f0565b600160088260ff16816101ea57fe5b04019150505b919050565b60008060405180806102da6024913960240190506040518091039020905060405181815284600482015283602482015260208160448360008a620249f0f18061023d57600093505b600081111561024b57815193505b602082016040525050509392505050565b60008060405180807f62616c616e63654f662861646472657373290000000000000000000000000000815250601201905060405180910390209050604051818152836004820152602081602483600089620249f0f1806102bb57600093505b60008111156102c957815193505b602082016040525050509291505056fe746f6b656e4f664f776e65724279496e64657828616464726573732c75696e7432353629a2646970667358221220a852c8a28f4942d026fe8bf485fbfa4e0608fdedded5c479f291067feb14fad664736f6c63430006040033",
  "source": "pragma solidity ^0.6.4;\nimport \"../Seriality/Seriality.sol\";\nimport \"./DummyERC721Token.sol\";\n\n\ncontract NFTBalances is Seriality {\n    constructor() public {}\n\n    modifier only_contract(address addr) {\n        uint32 size;\n        assembly {\n            size := extcodesize(addr)\n        }\n        require(size > 0, \"Not a contract\");\n        _;\n    }\n\n    function getTokenBalance(address tokenAddr, address addr)\n        public\n        returns (uint256 bal)\n    {\n        bytes4 sig = bytes4(keccak256(\"balanceOf(address)\"));\n        assembly {\n            // move pointer to free memory spot\n            let ptr := mload(0x40)\n            // put function sig at memory spot\n            mstore(ptr, sig)\n            // append argument after function sig\n            mstore(add(ptr, 0x04), addr)\n\n            let result := call(\n                150000, // gas limit\n                tokenAddr, // to addr. append var to _slot to access storage variable\n                0, // not transfer any ether\n                ptr, // Inputs are stored at location ptr\n                0x24, // Inputs are 36 bytes long\n                ptr, //Store output over input\n                0x20\n            ) //Outputs are 32 bytes long\n\n            if iszero(result) {\n                bal := 0 // return 0 on error and 0 balance\n            }\n            if gt(result, 0) {\n                bal := mload(ptr) // Assign output to answer var\n            }\n            mstore(0x40, add(ptr, 0x20)) // Set storage pointer to new space\n        }\n    }\n\n    function tokenOfOwnerByIndex(\n        address tokenAddr,\n        address owner,\n        uint256 tokenId\n    ) public returns (uint256 token) {\n        bytes4 sig = bytes4(keccak256(\"tokenOfOwnerByIndex(address,uint256)\"));\n        assembly {\n            // move pointer to free memory spot\n            let ptr := mload(0x40)\n            // put function sig at memory spot\n            mstore(ptr, sig)\n            // append argument after function sig\n            mstore(add(ptr, 0x04), owner)\n            // append argument after first parameter\n            mstore(add(ptr, 0x24), tokenId)\n\n            let result := call(\n                150000, // gas limit\n                tokenAddr, // to addr. append var to _slot to access storage variable\n                0, // not transfer any ether\n                ptr, // Inputs are stored at location ptr\n                0x44, // Inputs are 36 bytes long\n                ptr, //Store output over input\n                0x20\n            ) //Outputs are 32 bytes long\n\n            if iszero(result) {\n                token := 0 // return 0 on error\n            }\n            if gt(result, 0) {\n                token := mload(ptr) // Assign output to answer var\n            }\n            mstore(0x40, add(ptr, 0x20)) // Set storage pointer to new space\n        }\n    }\n\n    function getByteSize(uint256 number) public pure returns (uint8) {\n        uint8 bitpos = 0;\n        while (number != 0) {\n            bitpos++;\n            number = number >> 1;\n        }\n        if (bitpos % 8 == 0) return (bitpos / 8);\n        else return (bitpos / 8) + 1;\n    }\n\n    // function getTokenBalances(address[] memory _tokenAddresses, address _owner)\n    //     public\n    //     view\n    //     returns (bytes memory)\n    // {\n    //     uint256 bufferSize = 33; //define start + Data length\n    //     bufferSize += 32; //to save the itemcount\n    //     uint256[] memory tokenBalances = new uint256[](_tokenAddresses.length);\n    //     for (uint256 i = 0; i < _tokenAddresses.length; i++) {\n    //         tokenBalances[i] = getTokenBalance(_tokenAddresses[i], _owner);\n    //         bufferSize += 1; //save the bytesize\n    //         bufferSize += getByteSize(tokenBalances[i]);\n    //     }\n    //     bytes memory result = new bytes(bufferSize);\n    //     uint256 offset = bufferSize;\n    //     //serialize\n    //     boolToBytes(offset, true, result);\n    //     offset -= 1;\n    //     uintToBytes(offset, _tokenAddresses.length, result);\n    //     offset -= 32;\n    //     for (i = 0; i < _tokenAddresses.length; i++) {\n    //         uint8 numBytes = getByteSize(tokenBalances[i]);\n    //         uintToBytes(offset, numBytes, result);\n    //         offset -= 1;\n    //         uintToBytes(offset, tokenBalances[i], result);\n    //         offset -= numBytes;\n    //     }\n    //     return result;\n    // }\n\n    // function getOwnedTokens(\n    //     address _tokenAddress,\n    //     address _owner,\n    //     uint256 idxOffset,\n    //     uint256 count\n    // ) public view only_contract(_tokenAddress) returns (bytes memory) {\n    //     uint256 bufferSize = 33; //define start + Data length\n    //     bufferSize += 32; //to save the itemcount\n    //     uint256 tokenBalance = getTokenBalance(_tokenAddress, _owner);\n    //     uint256 itemCount = count;\n    //     if ((idxOffset + count) > tokenBalance) {\n    //         itemCount = tokenBalance - idxOffset;\n    //     }\n    //     uint256[] memory ownedTokens = new uint256[](itemCount);\n    //     for (uint256 i = 0; i < itemCount; i++) {\n    //         ownedTokens[i] = tokenOfOwnerByIndex(\n    //             _tokenAddress,\n    //             _owner,\n    //             i + idxOffset\n    //         );\n    //         bufferSize += 1; //save the bytesize\n    //         bufferSize += getByteSize(ownedTokens[i]);\n    //     }\n    //     bytes memory result = new bytes(bufferSize);\n    //     uint256 offset = bufferSize;\n    //     //serialize\n    //     boolToBytes(offset, true, result);\n    //     offset -= 1;\n    //     uintToBytes(offset, itemCount, result);\n    //     offset -= 32;\n    //     for (i = 0; i < itemCount; i++) {\n    //         uint8 numBytes = getByteSize(ownedTokens[i]);\n    //         uintToBytes(offset, numBytes, result);\n    //         offset -= 1;\n    //         uintToBytes(offset, ownedTokens[i], result);\n    //         offset -= numBytes;\n    //     }\n    //     return result;\n    // }\n}\n",
  "sourcePath": "/home/kvhnuke/GitHub/utility-contracts/contracts/nft-balances/NFTBalances.sol",
  "compiler": {
    "name": "solc",
    "version": "0.6.4+commit.1dca32f3.Emscripten.clang"
  },
  "schemaVersion": "3.1.0",
  "updatedAt": "2020-04-30T00:58:12.934Z",
  "devdoc": {
    "methods": {}
  },
  "userdoc": {
    "methods": {}
  }
}