{
  "contractName": "NFTBalances",
  "abi": [
    {
      "inputs": [],
      "payable": false,
      "stateMutability": "nonpayable",
      "type": "constructor"
    },
    {
      "constant": true,
      "inputs": [
        {
          "name": "tokenAddr",
          "type": "address"
        },
        {
          "name": "addr",
          "type": "address"
        }
      ],
      "name": "getTokenBalance",
      "outputs": [
        {
          "name": "bal",
          "type": "uint256"
        }
      ],
      "payable": false,
      "stateMutability": "view",
      "type": "function"
    },
    {
      "constant": true,
      "inputs": [
        {
          "name": "tokenAddr",
          "type": "address"
        },
        {
          "name": "owner",
          "type": "address"
        },
        {
          "name": "tokenId",
          "type": "uint256"
        }
      ],
      "name": "tokenOfOwnerByIndex",
      "outputs": [
        {
          "name": "token",
          "type": "uint256"
        }
      ],
      "payable": false,
      "stateMutability": "view",
      "type": "function"
    },
    {
      "constant": true,
      "inputs": [
        {
          "name": "number",
          "type": "uint256"
        }
      ],
      "name": "getByteSize",
      "outputs": [
        {
          "name": "",
          "type": "uint8"
        }
      ],
      "payable": false,
      "stateMutability": "view",
      "type": "function"
    },
    {
      "constant": true,
      "inputs": [
        {
          "name": "_tokenAddress",
          "type": "address"
        },
        {
          "name": "_owner",
          "type": "address"
        }
      ],
      "name": "getOwnedTokens",
      "outputs": [
        {
          "name": "",
          "type": "bytes"
        }
      ],
      "payable": false,
      "stateMutability": "view",
      "type": "function"
    }
  ],
  "bytecode": "0x608060405234801561001057600080fd5b50610699806100206000396000f300608060405260043610610062576000357c0100000000000000000000000000000000000000000000000000000000900463ffffffff168063533c279a146100675780636b42bf2f146100ae578063c489744b1461012f578063d387c4c1146101a6575b600080fd5b34801561007357600080fd5b5061009260048036038101908080359060200190929190505050610282565b604051808260ff1660ff16815260200191505060405180910390f35b3480156100ba57600080fd5b50610119600480360381019080803573ffffffffffffffffffffffffffffffffffffffff169060200190929190803573ffffffffffffffffffffffffffffffffffffffff169060200190929190803590602001909291905050506102fa565b6040518082815260200191505060405180910390f35b34801561013b57600080fd5b50610190600480360381019080803573ffffffffffffffffffffffffffffffffffffffff169060200190929190803573ffffffffffffffffffffffffffffffffffffffff1690602001909291905050506103a6565b6040518082815260200191505060405180910390f35b3480156101b257600080fd5b50610207600480360381019080803573ffffffffffffffffffffffffffffffffffffffff169060200190929190803573ffffffffffffffffffffffffffffffffffffffff169060200190929190505050610425565b6040518080602001828103825283818151815260200191508051906020019080838360005b8381101561024757808201518184015260208101905061022c565b50505050905090810190601f1680156102745780820380516001836020036101000a031916815260200191505b509250505060405180910390f35b600080600090505b6000831415156102ac5780806001019150506001839060020a9004925061028a565b600060088260ff168115156102bd57fe5b0660ff1614156102de5760088160ff168115156102d657fe5b0491506102f4565b600160088260ff168115156102ef57fe5b040191505b50919050565b60008060405180807f746f6b656e4f664f776e65724279496e64657828616464726573732c75696e7481526020017f323536290000000000000000000000000000000000000000000000000000000081525060240190506040518091039020905060405181815284600482015283602482015260208160448360008a620249f0f180151561038757600093505b600081111561039557815193505b602082016040525050509392505050565b60008060405180807f62616c616e63654f662861646472657373290000000000000000000000000000815250601201905060405180910390209050604051818152836004820152602081602483600089620249f0f180151561040757600093505b600081111561041557815193505b6020820160405250505092915050565b6060600080606060006060600080896000813b905060008163ffffffff161115156104b8576040517f08c379a000000000000000000000000000000000000000000000000000000000815260040180806020018281038252600e8152602001807f4e6f74206120636f6e747261637400000000000000000000000000000000000081525060200191505060405180910390fd5b602198506104c68c8c6103a6565b9750876040519080825280602002602001820160405280156104f75781602001602082028038833980820191505090505b509650600095505b87861015610568576105128c8c886102fa565b878781518110151561052057fe5b9060200190602002018181525050600189019850610554878781518110151561054557fe5b90602001906020020151610282565b60ff168901985085806001019650506104ff565b886040519080825280601f01601f19166020018201604052801561059b5781602001602082028038833980820191505090505b5094508893506105ad8460018761063f565b600184039350600095505b8786101561062d576105e087878151811015156105d157fe5b90602001906020020151610282565b92506105f0848460ff1687610663565b60018403935061061884888881518110151561060857fe5b9060200190602002015187610663565b8260ff168403935085806001019650506105b8565b84995050505050505050505092915050565b600080151583151514610653576001610656565b60005b9050808483015250505050565b81838201525050505600a165627a7a723058209077f6d54d7835454d5067f0327c9f6068c2b3d8ca2e6f2d7a1f0c5d06cd75dc0029",
  "source": "pragma solidity ^0.4.24;\nimport \"../Seriality/Seriality.sol\";\nimport \"./DummyERC721Token.sol\";\ncontract NFTBalances is Seriality{\n    constructor() public {}\n    modifier only_contract(address addr) {\n        uint32 size;\n        assembly {\n            size := extcodesize(addr)\n        }\n        require(size > 0, \"Not a contract\");\n        _;\n    }\n    function getTokenBalance(address tokenAddr, address addr) public view returns (uint bal) {\n        bytes4 sig = bytes4(keccak256(\"balanceOf(address)\"));\n        assembly {\n            // move pointer to free memory spot\n            let ptr := mload(0x40)\n            // put function sig at memory spot\n            mstore(ptr,sig)\n            // append argument after function sig\n            mstore(add(ptr,0x04), addr)\n\n            let result := call(\n              150000, // gas limit\n              tokenAddr,  // to addr. append var to _slot to access storage variable\n              0, // not transfer any ether\n              ptr, // Inputs are stored at location ptr\n              0x24, // Inputs are 36 bytes long\n              ptr,  //Store output over input\n              0x20) //Outputs are 32 bytes long\n\n             if iszero(result) {\n                 bal := 0 // return 0 on error and 0 balance\n             }\n             if gt(result, 0) {\n                 bal := mload(ptr) // Assign output to answer var\n             }\n            mstore(0x40,add(ptr,0x20)) // Set storage pointer to new space\n        }\n    }\n    function tokenOfOwnerByIndex(address tokenAddr, address owner, uint tokenId) public view returns (uint token) {\n        bytes4 sig = bytes4(keccak256(\"tokenOfOwnerByIndex(address,uint256)\"));\n        assembly {\n            // move pointer to free memory spot\n            let ptr := mload(0x40)\n            // put function sig at memory spot\n            mstore(ptr,sig)\n            // append argument after function sig\n            mstore(add(ptr,0x04), owner)\n            // append argument after first parameter\n            mstore(add(ptr,0x24), tokenId)\n\n            let result := call(\n              150000, // gas limit\n              tokenAddr,  // to addr. append var to _slot to access storage variable\n              0, // not transfer any ether\n              ptr, // Inputs are stored at location ptr\n              0x44, // Inputs are 36 bytes long\n              ptr,  //Store output over input\n              0x20) //Outputs are 32 bytes long\n\n             if iszero(result) {\n                 token := 0 // return 0 on error\n             }\n             if gt(result, 0) {\n                 token := mload(ptr) // Assign output to answer var\n             }\n            mstore(0x40,add(ptr,0x20)) // Set storage pointer to new space\n        }\n    }\n    function getByteSize(uint number) public view returns(uint8) {\n        uint8 bitpos = 0;\n        while(number != 0){\n            bitpos++;\n            number = number >> 1;\n        }\n        if(bitpos % 8 == 0) return (bitpos/8);\n        else return (bitpos/8)+1;\n    }\n    function getOwnedTokens(address _tokenAddress, address _owner) public view only_contract(_tokenAddress) returns (bytes memory) {\n        uint bufferSize = 33; //define start + Data length\n        uint tokenBalance = getTokenBalance(_tokenAddress, _owner);\n        uint[] memory ownedTokens = new uint[](tokenBalance);\n        for(uint i = 0; i < tokenBalance; i++){\n            ownedTokens[i] = tokenOfOwnerByIndex(_tokenAddress, _owner, i);\n            bufferSize += 1; //save the bytesize\n            bufferSize += getByteSize(ownedTokens[i]);\n        }\n        bytes memory result = new bytes(bufferSize);\n        uint offset = bufferSize;\n    \t//serialize\n        boolToBytes(offset, true, result); \n        offset -= 1;\n        for(i = 0; i < tokenBalance; i++){\n            uint8 numBytes = getByteSize(ownedTokens[i]);\n            uintToBytes(offset, numBytes, result); \n            offset -= 1;\n            uintToBytes(offset, ownedTokens[i], result); \n            offset -= numBytes;\n        }\n        return result;\n    }\n}",
  "sourcePath": "/home/kvhnuke/GitHub/utility-contracts/contracts/nft-balances/NFTBalances.sol",
  "compiler": {
    "name": "solc",
    "version": "0.4.26+commit.4563c3fc.Emscripten.clang"
  },
  "schemaVersion": "3.0.11",
  "updatedAt": "2019-06-26T21:36:15.715Z",
  "devdoc": {
    "methods": {}
  },
  "userdoc": {
    "methods": {}
  }
}