{
  "contractName": "NFTBalances",
  "abi": [
    {
      "inputs": [],
      "payable": false,
      "stateMutability": "nonpayable",
      "type": "constructor"
    },
    {
      "constant": true,
      "inputs": [
        {
          "name": "tokenAddr",
          "type": "address"
        }
      ],
      "name": "getTokenSupply",
      "outputs": [
        {
          "name": "supply",
          "type": "uint256"
        }
      ],
      "payable": false,
      "stateMutability": "view",
      "type": "function"
    },
    {
      "constant": true,
      "inputs": [
        {
          "name": "tokenAddr",
          "type": "address"
        },
        {
          "name": "addr",
          "type": "address"
        }
      ],
      "name": "getTokenBalance",
      "outputs": [
        {
          "name": "bal",
          "type": "uint256"
        }
      ],
      "payable": false,
      "stateMutability": "view",
      "type": "function"
    },
    {
      "constant": true,
      "inputs": [
        {
          "name": "tokenAddr",
          "type": "address"
        },
        {
          "name": "tokenId",
          "type": "uint256"
        }
      ],
      "name": "getTokenOwner",
      "outputs": [
        {
          "name": "owner",
          "type": "address"
        }
      ],
      "payable": false,
      "stateMutability": "view",
      "type": "function"
    },
    {
      "constant": true,
      "inputs": [
        {
          "name": "_tokenAddress",
          "type": "address"
        },
        {
          "name": "_owner",
          "type": "address"
        }
      ],
      "name": "getBufferSize",
      "outputs": [
        {
          "name": "",
          "type": "uint256"
        }
      ],
      "payable": false,
      "stateMutability": "view",
      "type": "function"
    },
    {
      "constant": true,
      "inputs": [
        {
          "name": "_tokenAddress",
          "type": "address"
        },
        {
          "name": "_owner",
          "type": "address"
        }
      ],
      "name": "getOwnedTokens",
      "outputs": [
        {
          "name": "",
          "type": "bytes"
        }
      ],
      "payable": false,
      "stateMutability": "view",
      "type": "function"
    }
  ],
  "bytecode": "0x608060405234801561001057600080fd5b506108cd806100206000396000f30060806040526004361061006d576000357c0100000000000000000000000000000000000000000000000000000000900463ffffffff168063200fc750146100725780632df926cc146100e9578063c489744b14610176578063d387c4c1146101ed578063f2866c78146102c9575b600080fd5b34801561007e57600080fd5b506100d3600480360381019080803573ffffffffffffffffffffffffffffffffffffffff169060200190929190803573ffffffffffffffffffffffffffffffffffffffff169060200190929190505050610320565b6040518082815260200191505060405180910390f35b3480156100f557600080fd5b50610134600480360381019080803573ffffffffffffffffffffffffffffffffffffffff169060200190929190803590602001909291905050506104e4565b604051808273ffffffffffffffffffffffffffffffffffffffff1673ffffffffffffffffffffffffffffffffffffffff16815260200191505060405180910390f35b34801561018257600080fd5b506101d7600480360381019080803573ffffffffffffffffffffffffffffffffffffffff169060200190929190803573ffffffffffffffffffffffffffffffffffffffff169060200190929190505050610563565b6040518082815260200191505060405180910390f35b3480156101f957600080fd5b5061024e600480360381019080803573ffffffffffffffffffffffffffffffffffffffff169060200190929190803573ffffffffffffffffffffffffffffffffffffffff1690602001909291905050506105e2565b6040518080602001828103825283818151815260200191508051906020019080838360005b8381101561028e578082015181840152602081019050610273565b50505050905090810190601f1680156102bb5780820380516001836020036101000a031916815260200191505b509250505060405180910390f35b3480156102d557600080fd5b5061030a600480360381019080803573ffffffffffffffffffffffffffffffffffffffff1690602001909291905050506107fb565b6040518082815260200191505060405180910390f35b6000806000806060600080886000813b905060008163ffffffff161115156103b0576040517f08c379a000000000000000000000000000000000000000000000000000000000815260040180806020018281038252600e8152602001807f4e6f74206120636f6e747261637400000000000000000000000000000000000081525060200191505060405180910390fd5b600197506103be8b8b610563565b96506103c98b6107fb565b9550866040519080825280602002602001820160405280156103fa5781602001602082028038833980820191505090505b50945060009350600092505b858363ffffffff161080156104205750868463ffffffff16105b156104b5578973ffffffffffffffffffffffffffffffffffffffff1661044c8c8563ffffffff166104e4565b73ffffffffffffffffffffffffffffffffffffffff1614156104a85782858563ffffffff1681518110151561047d57fe5b9060200190602002019063ffffffff16908163ffffffff168152505083806001019450506004880197505b8280600101935050610406565b8460018151811015156104c457fe5b9060200190602002015163ffffffff169850505050505050505092915050565b60008060405180807f6f776e65724f662875696e743235362900000000000000000000000000000000815250601001905060405180910390209050604051818152836004820152602081602483600089620249f0f180151561054557600093505b600081111561055357815193505b6020820160405250505092915050565b60008060405180807f62616c616e63654f662861646472657373290000000000000000000000000000815250601201905060405180910390209050604051818152836004820152602081602483600089620249f0f18015156105c457600093505b60008111156105d257815193505b6020820160405250505092915050565b60606000806000606060008060606000808b6000813b905060008163ffffffff16111515610678576040517f08c379a000000000000000000000000000000000000000000000000000000000815260040180806020018281038252600e8152602001807f4e6f74206120636f6e747261637400000000000000000000000000000000000081525060200191505060405180910390fd5b60019a506106868e8e610563565b99506106918e6107fb565b9850896040519080825280602002602001820160405280156106c25781602001602082028038833980820191505090505b50975060009650600095505b88861080156106dc57508987105b15610757578c73ffffffffffffffffffffffffffffffffffffffff166107028f886104e4565b73ffffffffffffffffffffffffffffffffffffffff16141561074a5785888881518110151561072d57fe5b9060200190602002018181525050868060010197505060208b019a505b85806001019650506106ce565b8a6040519080825280601f01601f19166020018201604052801561078a5781602001602082028038833980820191505090505b5094508a935061079c84600187610873565b600184039350600095505b898610156107e75787868151811015156107bd57fe5b9060200190602002015192506107d4848487610897565b60208403935085806001019650506107a7565b849b50505050505050505050505092915050565b60008060405180807f746f74616c537570706c79282900000000000000000000000000000000000000815250600d01905060405180910390209050604051818152602081600483600088620249f0f180151561085657600093505b600081111561086457815193505b60208201604052505050919050565b60008015158315151461088757600161088a565b60005b9050808483015250505050565b81838201525050505600a165627a7a72305820ffb98acfd7b0cb8779430418ffb6170cdd571258df77707aa0ea0d8d626e6bce0029",
  "source": "pragma solidity ^0.4.24;\nimport \"../Seriality/Seriality.sol\";\nimport \"./DummyERC721Token.sol\";\ncontract NFTBalances is Seriality{\n    constructor() public {}\n    modifier only_contract(address addr) {\n        uint32 size;\n        assembly {\n            size := extcodesize(addr)\n        }\n        require(size > 0, \"Not a contract\");\n        _;\n    }\n    function getTokenSupply(address tokenAddr) public view returns (uint supply) {\n        bytes4 sig = bytes4(keccak256(\"totalSupply()\"));\n        assembly {\n            // move pointer to free memory spot\n            let ptr := mload(0x40)\n            // put function sig at memory spot\n            mstore(ptr,sig)\n\n            let result := call(\n              150000, // gas limit\n              tokenAddr,  // to addr. append var to _slot to access storage variable\n              0, // not transfer any ether\n              ptr, // Inputs are stored at location ptr\n              0x04, // Inputs are 4 bytes long\n              ptr,  //Store output over input\n              0x20) //Outputs are 32 bytes long\n\n             if iszero(result) {\n                 supply := 0 // return 0 on error and 0 balance\n             }\n             if gt(result, 0) {\n                 supply := mload(ptr) // Assign output to answer var\n             }\n            mstore(0x40,add(ptr,0x20)) // Set storage pointer to new space\n        }\n    }\n    function getTokenBalance(address tokenAddr, address addr) public view returns (uint bal) {\n        bytes4 sig = bytes4(keccak256(\"balanceOf(address)\"));\n        assembly {\n            // move pointer to free memory spot\n            let ptr := mload(0x40)\n            // put function sig at memory spot\n            mstore(ptr,sig)\n            // append argument after function sig\n            mstore(add(ptr,0x04), addr)\n\n            let result := call(\n              150000, // gas limit\n              tokenAddr,  // to addr. append var to _slot to access storage variable\n              0, // not transfer any ether\n              ptr, // Inputs are stored at location ptr\n              0x24, // Inputs are 36 bytes long\n              ptr,  //Store output over input\n              0x20) //Outputs are 32 bytes long\n\n             if iszero(result) {\n                 bal := 0 // return 0 on error and 0 balance\n             }\n             if gt(result, 0) {\n                 bal := mload(ptr) // Assign output to answer var\n             }\n            mstore(0x40,add(ptr,0x20)) // Set storage pointer to new space\n        }\n    }\n    function getTokenOwner(address tokenAddr, uint256 tokenId) public view returns (address owner) {\n        bytes4 sig = bytes4(keccak256(\"ownerOf(uint256)\"));\n        assembly {\n            // move pointer to free memory spot\n            let ptr := mload(0x40)\n            // put function sig at memory spot\n            mstore(ptr,sig)\n            // append argument after function sig\n            mstore(add(ptr,0x04), tokenId)\n\n            let result := call(\n              150000, // gas limit\n              tokenAddr,  // to addr. append var to _slot to access storage variable\n              0, // not transfer any ether\n              ptr, // Inputs are stored at location ptr\n              0x24, // Inputs are 36 bytes long\n              ptr,  //Store output over input\n              0x20) //Outputs are 32 bytes long\n\n             if iszero(result) {\n                 owner := 0 // return 0 on error and 0 balance\n             }\n             if gt(result, 0) {\n                 owner := mload(ptr) // Assign output to answer var\n             }\n            mstore(0x40,add(ptr,0x20)) // Set storage pointer to new space\n        }\n    }\n    function getBufferSize(address _tokenAddress, address _owner) public view only_contract(_tokenAddress) returns (uint) {\n        uint bufferSize = 1; //define start\n        uint tokenBalance = getTokenBalance(_tokenAddress, _owner);\n        uint tokenSupply = getTokenSupply(_tokenAddress);\n        uint32[] memory ownedTokens = new uint32[](tokenBalance);\n        uint32 countedTokens = 0;\n        for(uint32 i = 0; i < tokenSupply && countedTokens < tokenBalance; i++){\n            if(address(getTokenOwner(_tokenAddress, i)) == _owner){\n                ownedTokens[countedTokens] = i;\n                countedTokens++;\n                bufferSize += 4; // tokenId (4)\n    \t\t}\n        }\n        return ownedTokens[1];\n    }\n    function getOwnedTokens(address _tokenAddress, address _owner) public view only_contract(_tokenAddress) returns (bytes memory) {\n        uint bufferSize = 1; //define start\n        uint tokenBalance = getTokenBalance(_tokenAddress, _owner);\n        uint tokenSupply = getTokenSupply(_tokenAddress);\n        uint[] memory ownedTokens = new uint[](tokenBalance);\n        uint countedTokens = 0;\n        for(uint i = 0; i < tokenSupply && countedTokens < tokenBalance; i++){\n            if(address(getTokenOwner(_tokenAddress, i)) == _owner){\n                ownedTokens[countedTokens] = i;\n                countedTokens++;\n                bufferSize += 32; // tokenId (4)\n    \t\t}\n        }\n        bytes memory result = new bytes(bufferSize);\n        uint offset = bufferSize;\n    \t//serialize\n        boolToBytes(offset, true, result); \n        offset -= 1;\n        for(i = 0; i < tokenBalance; i++){\n            uint _tokenId = ownedTokens[i];\n            uintToBytes(offset, _tokenId, result); \n            offset -= 32;\n        }\n        return result;\n    }\n}",
  "sourcePath": "/home/kvhnuke/GitHub/utility-contracts/contracts/nft-balances/NFTBalances.sol",
  "compiler": {
    "name": "solc",
    "version": "0.4.26+commit.4563c3fc.Emscripten.clang"
  },
  "schemaVersion": "3.0.11",
  "updatedAt": "2019-06-26T04:51:10.205Z",
  "devdoc": {
    "methods": {}
  },
  "userdoc": {
    "methods": {}
  }
}