{
  "contractName": "PublicTokens",
  "abi": [
    {
      "constant": true,
      "inputs": [
        {
          "name": "",
          "type": "uint256"
        }
      ],
      "name": "pubTokens",
      "outputs": [
        {
          "name": "name",
          "type": "bytes16"
        },
        {
          "name": "symbol",
          "type": "bytes16"
        },
        {
          "name": "addr",
          "type": "address"
        },
        {
          "name": "decimals",
          "type": "uint8"
        },
        {
          "name": "website",
          "type": "bytes32"
        },
        {
          "name": "email",
          "type": "bytes32"
        },
        {
          "name": "isValid",
          "type": "bool"
        }
      ],
      "payable": false,
      "stateMutability": "view",
      "type": "function"
    },
    {
      "constant": true,
      "inputs": [
        {
          "name": "",
          "type": "address"
        }
      ],
      "name": "idMap",
      "outputs": [
        {
          "name": "",
          "type": "uint256"
        }
      ],
      "payable": false,
      "stateMutability": "view",
      "type": "function"
    },
    {
      "constant": true,
      "inputs": [],
      "name": "owner",
      "outputs": [
        {
          "name": "",
          "type": "address"
        }
      ],
      "payable": false,
      "stateMutability": "view",
      "type": "function"
    },
    {
      "constant": true,
      "inputs": [],
      "name": "tokenCount",
      "outputs": [
        {
          "name": "",
          "type": "uint256"
        }
      ],
      "payable": false,
      "stateMutability": "view",
      "type": "function"
    },
    {
      "constant": true,
      "inputs": [],
      "name": "tokenValidCount",
      "outputs": [
        {
          "name": "",
          "type": "uint256"
        }
      ],
      "payable": false,
      "stateMutability": "view",
      "type": "function"
    },
    {
      "constant": true,
      "inputs": [
        {
          "name": "",
          "type": "address"
        }
      ],
      "name": "moderator",
      "outputs": [
        {
          "name": "",
          "type": "bool"
        }
      ],
      "payable": false,
      "stateMutability": "view",
      "type": "function"
    },
    {
      "inputs": [],
      "payable": false,
      "stateMutability": "nonpayable",
      "type": "constructor"
    },
    {
      "constant": false,
      "inputs": [
        {
          "name": "addr",
          "type": "address"
        }
      ],
      "name": "addModerator",
      "outputs": [],
      "payable": false,
      "stateMutability": "nonpayable",
      "type": "function"
    },
    {
      "constant": false,
      "inputs": [
        {
          "name": "addr",
          "type": "address"
        }
      ],
      "name": "removeModerator",
      "outputs": [],
      "payable": false,
      "stateMutability": "nonpayable",
      "type": "function"
    },
    {
      "constant": false,
      "inputs": [
        {
          "name": "name",
          "type": "bytes16"
        },
        {
          "name": "symbol",
          "type": "bytes16"
        },
        {
          "name": "addr",
          "type": "address"
        },
        {
          "name": "decimals",
          "type": "uint8"
        },
        {
          "name": "website",
          "type": "bytes32"
        },
        {
          "name": "email",
          "type": "bytes32"
        }
      ],
      "name": "addSetToken",
      "outputs": [],
      "payable": false,
      "stateMutability": "nonpayable",
      "type": "function"
    },
    {
      "constant": false,
      "inputs": [
        {
          "name": "addr",
          "type": "address"
        }
      ],
      "name": "disableToken",
      "outputs": [],
      "payable": false,
      "stateMutability": "nonpayable",
      "type": "function"
    },
    {
      "constant": false,
      "inputs": [
        {
          "name": "addr",
          "type": "address"
        }
      ],
      "name": "enableToken",
      "outputs": [],
      "payable": false,
      "stateMutability": "nonpayable",
      "type": "function"
    },
    {
      "constant": true,
      "inputs": [
        {
          "name": "addr",
          "type": "address"
        }
      ],
      "name": "getToken",
      "outputs": [
        {
          "name": "",
          "type": "bytes16"
        },
        {
          "name": "",
          "type": "bytes16"
        },
        {
          "name": "",
          "type": "address"
        },
        {
          "name": "",
          "type": "uint8"
        },
        {
          "name": "",
          "type": "bytes32"
        },
        {
          "name": "",
          "type": "bytes32"
        }
      ],
      "payable": false,
      "stateMutability": "view",
      "type": "function"
    },
    {
      "constant": true,
      "inputs": [
        {
          "name": "id",
          "type": "uint256"
        }
      ],
      "name": "getTokenById",
      "outputs": [
        {
          "name": "",
          "type": "bytes16"
        },
        {
          "name": "",
          "type": "bytes16"
        },
        {
          "name": "",
          "type": "address"
        },
        {
          "name": "",
          "type": "uint8"
        },
        {
          "name": "",
          "type": "bytes32"
        },
        {
          "name": "",
          "type": "bytes32"
        }
      ],
      "payable": false,
      "stateMutability": "view",
      "type": "function"
    },
    {
      "constant": true,
      "inputs": [
        {
          "name": "_owner",
          "type": "address"
        },
        {
          "name": "name",
          "type": "bool"
        },
        {
          "name": "website",
          "type": "bool"
        },
        {
          "name": "email",
          "type": "bool"
        },
        {
          "name": "count",
          "type": "uint256"
        }
      ],
      "name": "getAllBalance",
      "outputs": [
        {
          "name": "",
          "type": "bytes"
        }
      ],
      "payable": false,
      "stateMutability": "view",
      "type": "function"
    }
  ],
  "bytecode": "0x6060604052600080556000600155341561001857600080fd5b33600260006101000a81548173ffffffffffffffffffffffffffffffffffffffff021916908373ffffffffffffffffffffffffffffffffffffffff160217905550611aed806100686000396000f3006060604052600436106100d0576000357c0100000000000000000000000000000000000000000000000000000000900463ffffffff1680631f85eb3f146100d557806323e27a64146101c857806359770438146102015780636b941e10146102ff5780637bdc60d91461034c57806380f4ae5c14610434578063869d785f146105105780638da5cb5b146105495780639f181b5e1461059e578063a593f0ba146105c7578063b1bed4f5146105f0578063b532e4cb14610641578063c690908a1461067a578063fae0cc19146106b3575b600080fd5b34156100e057600080fd5b6100f6600480803590602001909190505061074a565b60405180886fffffffffffffffffffffffffffffffff19166fffffffffffffffffffffffffffffffff19168152602001876fffffffffffffffffffffffffffffffff19166fffffffffffffffffffffffffffffffff191681526020018673ffffffffffffffffffffffffffffffffffffffff1673ffffffffffffffffffffffffffffffffffffffff1681526020018560ff1660ff168152602001846000191660001916815260200183600019166000191681526020018215151515815260200197505050505050505060405180910390f35b34156101d357600080fd5b6101ff600480803573ffffffffffffffffffffffffffffffffffffffff16906020019091905050610800565b005b341561020c57600080fd5b610238600480803573ffffffffffffffffffffffffffffffffffffffff169060200190919050506109c2565b60405180876fffffffffffffffffffffffffffffffff19166fffffffffffffffffffffffffffffffff19168152602001866fffffffffffffffffffffffffffffffff19166fffffffffffffffffffffffffffffffff191681526020018573ffffffffffffffffffffffffffffffffffffffff1673ffffffffffffffffffffffffffffffffffffffff1681526020018460ff1660ff16815260200183600019166000191681526020018260001916600019168152602001965050505050505060405180910390f35b341561030a57600080fd5b610336600480803573ffffffffffffffffffffffffffffffffffffffff16906020019091905050610bb3565b6040518082815260200191505060405180910390f35b341561035757600080fd5b61036d6004808035906020019091905050610bcb565b60405180876fffffffffffffffffffffffffffffffff19166fffffffffffffffffffffffffffffffff19168152602001866fffffffffffffffffffffffffffffffff19166fffffffffffffffffffffffffffffffff191681526020018573ffffffffffffffffffffffffffffffffffffffff1673ffffffffffffffffffffffffffffffffffffffff1681526020018460ff1660ff16815260200183600019166000191681526020018260001916600019168152602001965050505050505060405180910390f35b341561043f57600080fd5b610495600480803573ffffffffffffffffffffffffffffffffffffffff16906020019091908035151590602001909190803515159060200190919080351515906020019091908035906020019091905050610d7d565b6040518080602001828103825283818151815260200191508051906020019080838360005b838110156104d55780820151818401526020810190506104ba565b50505050905090810190601f1680156105025780820380516001836020036101000a031916815260200191505b509250505060405180910390f35b341561051b57600080fd5b610547600480803573ffffffffffffffffffffffffffffffffffffffff16906020019091905050611316565b005b341561055457600080fd5b61055c6113cd565b604051808273ffffffffffffffffffffffffffffffffffffffff1673ffffffffffffffffffffffffffffffffffffffff16815260200191505060405180910390f35b34156105a957600080fd5b6105b16113f3565b6040518082815260200191505060405180910390f35b34156105d257600080fd5b6105da6113f9565b6040518082815260200191505060405180910390f35b34156105fb57600080fd5b610627600480803573ffffffffffffffffffffffffffffffffffffffff169060200190919050506113ff565b604051808215151515815260200191505060405180910390f35b341561064c57600080fd5b610678600480803573ffffffffffffffffffffffffffffffffffffffff1690602001909190505061141f565b005b341561068557600080fd5b6106b1600480803573ffffffffffffffffffffffffffffffffffffffff169060200190919050506114d6565b005b34156106be57600080fd5b61074860048080356fffffffffffffffffffffffffffffffff19169060200190919080356fffffffffffffffffffffffffffffffff191690602001909190803573ffffffffffffffffffffffffffffffffffffffff1690602001909190803560ff169060200190919080356000191690602001909190803560001916906020019091905050611697565b005b60036020528060005260406000206000915090508060000160009054906101000a900470010000000000000000000000000000000002908060000160109054906101000a900470010000000000000000000000000000000002908060010160009054906101000a900473ffffffffffffffffffffffffffffffffffffffff16908060010160149054906101000a900460ff16908060020154908060030154908060040160009054906101000a900460ff16905087565b60003373ffffffffffffffffffffffffffffffffffffffff16600260009054906101000a900473ffffffffffffffffffffffffffffffffffffffff1673ffffffffffffffffffffffffffffffffffffffff1614806108ae575060011515600460003373ffffffffffffffffffffffffffffffffffffffff1673ffffffffffffffffffffffffffffffffffffffff16815260200190815260200160002060009054906101000a900460ff161515145b15156108b957600080fd5b8160008173ffffffffffffffffffffffffffffffffffffffff16141515156108e057600080fd5b60036000600560008673ffffffffffffffffffffffffffffffffffffffff1673ffffffffffffffffffffffffffffffffffffffff16815260200190815260200160002054815260200190815260200160002091508273ffffffffffffffffffffffffffffffffffffffff168260010160009054906101000a900473ffffffffffffffffffffffffffffffffffffffff1673ffffffffffffffffffffffffffffffffffffffff1614156109bd5760008260040160006101000a81548160ff021916908315150217905550600160008154809291906001900391905055505b505050565b6000806000806000806109d3611a28565b60036000600560008b73ffffffffffffffffffffffffffffffffffffffff1673ffffffffffffffffffffffffffffffffffffffff16815260200190815260200160002054815260200190815260200160002060e060405190810160405290816000820160009054906101000a9004700100000000000000000000000000000000026fffffffffffffffffffffffffffffffff19166fffffffffffffffffffffffffffffffff191681526020016000820160109054906101000a9004700100000000000000000000000000000000026fffffffffffffffffffffffffffffffff19166fffffffffffffffffffffffffffffffff191681526020016001820160009054906101000a900473ffffffffffffffffffffffffffffffffffffffff1673ffffffffffffffffffffffffffffffffffffffff1673ffffffffffffffffffffffffffffffffffffffff1681526020016001820160149054906101000a900460ff1660ff1660ff1681526020016002820154600019166000191681526020016003820154600019166000191681526020016004820160009054906101000a900460ff1615151515815250509050806000015181602001518260400151836060015184608001518560a001519650965096509650965096505091939550919395565b60056020528060005260406000206000915090505481565b600080600080600080610bdc611a28565b6003600089815260200190815260200160002060e060405190810160405290816000820160009054906101000a9004700100000000000000000000000000000000026fffffffffffffffffffffffffffffffff19166fffffffffffffffffffffffffffffffff191681526020016000820160109054906101000a9004700100000000000000000000000000000000026fffffffffffffffffffffffffffffffff19166fffffffffffffffffffffffffffffffff191681526020016001820160009054906101000a900473ffffffffffffffffffffffffffffffffffffffff1673ffffffffffffffffffffffffffffffffffffffff1673ffffffffffffffffffffffffffffffffffffffff1681526020016001820160149054906101000a900460ff1660ff1660ff1681526020016002820154600019166000191681526020016003820154600019166000191681526020016004820160009054906101000a900460ff1615151515815250509050806000015181602001518260400151836060015184608001518560a001519650965096509650965096505091939550919395565b610d85611aad565b6000806000610d92611a28565b610d9a611aad565b6000806000808a1415610dad5760005499505b6021975060038801975060009650600195505b8986111515610f83576003600087815260200190815260200160002060e060405190810160405290816000820160009054906101000a9004700100000000000000000000000000000000026fffffffffffffffffffffffffffffffff19166fffffffffffffffffffffffffffffffff191681526020016000820160109054906101000a9004700100000000000000000000000000000000026fffffffffffffffffffffffffffffffff19166fffffffffffffffffffffffffffffffff191681526020016001820160009054906101000a900473ffffffffffffffffffffffffffffffffffffffff1673ffffffffffffffffffffffffffffffffffffffff1673ffffffffffffffffffffffffffffffffffffffff1681526020016001820160149054906101000a900460ff1660ff1660ff1681526020016002820154600019166000191681526020016003820154600019166000191681526020016004820160009054906101000a900460ff16151515158152505094508460c0015115610f765786806001019750508c15610f55576010880197505b8b15610f62576020880197505b8a15610f6f576020880197505b604c880197505b8580600101965050610dc0565b87604051805910610f915750595b9080825280601f01601f19166020018201604052509350879250610fb7836001866119a9565b600183039250610fc88388866119cd565b602083039250610fd9838e866119a9565b600183039250610fea838d866119a9565b600183039250610ffb838c866119a9565b600183039250600195505b8986111515611302576003600087815260200190815260200160002060e060405190810160405290816000820160009054906101000a9004700100000000000000000000000000000000026fffffffffffffffffffffffffffffffff19166fffffffffffffffffffffffffffffffff191681526020016000820160109054906101000a9004700100000000000000000000000000000000026fffffffffffffffffffffffffffffffff19166fffffffffffffffffffffffffffffffff191681526020016001820160009054906101000a900473ffffffffffffffffffffffffffffffffffffffff1673ffffffffffffffffffffffffffffffffffffffff1673ffffffffffffffffffffffffffffffffffffffff1681526020016001820160149054906101000a900460ff1660ff1660ff1681526020016002820154600019166000191681526020016003820154600019166000191681526020016004820160009054906101000a900460ff1615151515815250509450846040015191508460c00151156112f55761119c838660200151866119d7565b6010830392506111b1838660400151866119fc565b6014830392506111c983866060015160ff16866119cd565b6008830392508173ffffffffffffffffffffffffffffffffffffffff166370a082318f6000604051602001526040518263ffffffff167c0100000000000000000000000000000000000000000000000000000000028152600401808273ffffffffffffffffffffffffffffffffffffffff1673ffffffffffffffffffffffffffffffffffffffff168152602001915050602060405180830381600087803b151561127257600080fd5b6102c65a03f1151561128357600080fd5b50505060405180519050905061129a8382866119cd565b6020830392508c156112bc576112b5838660000151866119d7565b6010830392505b8b156112d8576112d183866080015186611a06565b6020830392505b8a156112f4576112ed838660a0015186611a06565b6020830392505b5b8580600101965050611006565b839850505050505050505095945050505050565b3373ffffffffffffffffffffffffffffffffffffffff16600260009054906101000a900473ffffffffffffffffffffffffffffffffffffffff1673ffffffffffffffffffffffffffffffffffffffff1614151561137257600080fd5b6000600460008373ffffffffffffffffffffffffffffffffffffffff1673ffffffffffffffffffffffffffffffffffffffff16815260200190815260200160002060006101000a81548160ff02191690831515021790555050565b600260009054906101000a900473ffffffffffffffffffffffffffffffffffffffff1681565b60005481565b60015481565b60046020528060005260406000206000915054906101000a900460ff1681565b3373ffffffffffffffffffffffffffffffffffffffff16600260009054906101000a900473ffffffffffffffffffffffffffffffffffffffff1673ffffffffffffffffffffffffffffffffffffffff1614151561147b57600080fd5b6001600460008373ffffffffffffffffffffffffffffffffffffffff1673ffffffffffffffffffffffffffffffffffffffff16815260200190815260200160002060006101000a81548160ff02191690831515021790555050565b60003373ffffffffffffffffffffffffffffffffffffffff16600260009054906101000a900473ffffffffffffffffffffffffffffffffffffffff1673ffffffffffffffffffffffffffffffffffffffff161480611584575060011515600460003373ffffffffffffffffffffffffffffffffffffffff1673ffffffffffffffffffffffffffffffffffffffff16815260200190815260200160002060009054906101000a900460ff161515145b151561158f57600080fd5b8160008173ffffffffffffffffffffffffffffffffffffffff16141515156115b657600080fd5b60036000600560008673ffffffffffffffffffffffffffffffffffffffff1673ffffffffffffffffffffffffffffffffffffffff16815260200190815260200160002054815260200190815260200160002091508273ffffffffffffffffffffffffffffffffffffffff168260010160009054906101000a900473ffffffffffffffffffffffffffffffffffffffff1673ffffffffffffffffffffffffffffffffffffffff1614156116925760008260040160006101000a81548160ff0219169083151502179055506001600081548092919060010191905055505b505050565b60003373ffffffffffffffffffffffffffffffffffffffff16600260009054906101000a900473ffffffffffffffffffffffffffffffffffffffff1673ffffffffffffffffffffffffffffffffffffffff161480611745575060011515600460003373ffffffffffffffffffffffffffffffffffffffff1673ffffffffffffffffffffffffffffffffffffffff16815260200190815260200160002060009054906101000a900460ff161515145b151561175057600080fd5b8460008173ffffffffffffffffffffffffffffffffffffffff161415151561177757600080fd5b60036000600560008973ffffffffffffffffffffffffffffffffffffffff1673ffffffffffffffffffffffffffffffffffffffff168152602001908152602001600020548152602001908152602001600020915060008260010160009054906101000a900473ffffffffffffffffffffffffffffffffffffffff1673ffffffffffffffffffffffffffffffffffffffff1614156118ab57600080815480929190600101919050555060016000815480929190600101919050555060036000805481526020019081526020016000209150600054600560008873ffffffffffffffffffffffffffffffffffffffff1673ffffffffffffffffffffffffffffffffffffffff1681526020019081526020016000208190555060018260040160006101000a81548160ff0219169083151502179055505b878260000160006101000a8154816fffffffffffffffffffffffffffffffff021916908370010000000000000000000000000000000090040217905550868260000160106101000a8154816fffffffffffffffffffffffffffffffff021916908370010000000000000000000000000000000090040217905550858260010160006101000a81548173ffffffffffffffffffffffffffffffffffffffff021916908373ffffffffffffffffffffffffffffffffffffffff160217905550848260010160146101000a81548160ff021916908360ff16021790555083826002018160001916905550828260030181600019169055505050505050505050565b6000801515831515146119bd5760016119c0565b60005b9050808483015250505050565b8183820152505050565b600060105b83821a8260100186850101536001820191508082106119dc575050505050565b8183820152505050565b600060205b83821a828685010153600182019150808210611a0b575050505050565b60e06040519081016040528060006fffffffffffffffffffffffffffffffff1916815260200160006fffffffffffffffffffffffffffffffff19168152602001600073ffffffffffffffffffffffffffffffffffffffff168152602001600060ff16815260200160008019168152602001600080191681526020016000151581525090565b6020604051908101604052806000815250905600a165627a7a72305820ffb0feee45f3bde5cdfb2b8e9dc0d0cc5183021e4a484d61be0982fc3db3780b0029",
  "source": "pragma solidity ^0.4.0;\nimport \"./Seriality/Seriality.sol\";\nimport \"./DummyToken.sol\";\n\ncontract PublicTokens is Seriality{\n\tuint public tokenCount = 0; //total count of all added tokens\n\tuint public tokenValidCount = 0; //count of all valid tokens isValid!=false\n\taddress public owner;\n    struct Token {\n        bytes16 name; // Name of the token\n        bytes16 symbol;  // Symbol of the token\n        address addr; // Address of the token contract\n        uint8 decimals; // decimals of the token\n        bytes32 website;   // website of the token\n        bytes32 email; // support email of the token\n        bool isValid; //whether the token is valid or not\n    }\n    mapping(uint => Token) public pubTokens;\n    mapping(address => bool) public moderator;\n    mapping(address => uint) public idMap;\n    modifier owner_only() {\n        require(owner == msg.sender);\n        _;\n    }\n    modifier only_mod() {\n        require(owner == msg.sender || moderator[msg.sender] == true);\n        _;\n    }\n    modifier no_null(address addr) {\n        require(addr != 0x0);\n        _;\n    }\n    function PublicTokens () public {\n    \towner = msg.sender;\n    }\n    function addModerator(address addr) public owner_only {\n    \tmoderator[addr] = true;\n    }\n    function removeModerator(address addr) public owner_only {\n    \tmoderator[addr] = false;\n    }\n    function addSetToken(\n    \tbytes16 name, \n    \tbytes16 symbol, \n    \taddress addr, \n    \tuint8 decimals, \n    \tbytes32 website, \n    \tbytes32 email) public only_mod no_null(addr) {\n    \tToken storage token = pubTokens[idMap[addr]];\n    \tif(token.addr == 0x0) {\n    \t\ttokenCount++;\n        \ttokenValidCount++;\n    \t\ttoken = pubTokens[tokenCount];\n    \t\tidMap[addr] = tokenCount;\n    \t\ttoken.isValid = true;\n    \t}\n        token.name = name;\n        token.symbol = symbol;\n        token.addr = addr;\n        token.decimals = decimals;\n        token.website = website;\n        token.email = email;\n    }\n    function disableToken(address addr) public only_mod no_null(addr) {\n    \tToken storage token = pubTokens[idMap[addr]];\n    \tif(token.addr == addr) {\n    \t\ttoken.isValid = false;\n    \t\ttokenValidCount--;\n    \t}\n    }\n    function enableToken(address addr) public only_mod no_null(addr) {\n    \tToken storage token = pubTokens[idMap[addr]];\n    \tif(token.addr == addr) {\n    \t\ttoken.isValid = false;\n    \t\ttokenValidCount++;\n    \t}\n    }\n    function getToken(address addr) public view returns (\n    \tbytes16, \n    \tbytes16, \n    \taddress, \n    \tuint8, \n    \tbytes32, \n    \tbytes32) {\n    \tToken memory token =  pubTokens[idMap[addr]];\n        return (\n        \ttoken.name,\n        \ttoken.symbol,\n        \ttoken.addr,\n        \ttoken.decimals,\n        \ttoken.website,\n        \ttoken.email);\n    }\n    function getTokenById(uint id) public view returns (\n    \tbytes16, \n    \tbytes16, \n    \taddress, \n    \tuint8, \n    \tbytes32, \n    \tbytes32) {\n    \tToken memory token =  pubTokens[id];\n        return (\n        \ttoken.name,\n        \ttoken.symbol,\n        \ttoken.addr,\n        \ttoken.decimals,\n        \ttoken.website,\n        \ttoken.email);\n    }\n    function getAllBalance(address _owner, bool name, bool website, bool email, uint count) public view returns (bytes) {\n    \tif(count == 0) count = tokenCount;\n        uint bufferSize = 33; //assign 32 bytes to set the total number of tokens + define start\n    \tbufferSize += 3; //set name, website, email\n        uint validCounter = 0;\n    \tfor(uint i=1; i<=count; i++){\n    \t\tToken memory token = pubTokens[i];\n    \t\tif(token.isValid){\n                validCounter++;\n    \t\t\tif(name) bufferSize+=16;\n    \t\t\tif(website) bufferSize+=32;\n    \t\t\tif(email) bufferSize+=32;\n    \t\t\tbufferSize+= 76; // address (20) + symbol(16) + balance(32) + decimals(8)\n    \t\t}\n    \t}\n    \tbytes memory result = new bytes(bufferSize);\n    \tuint offset = bufferSize;\n    \t//serialize\n        boolToBytes(offset, true, result); offset -= 1;\n    \tuintToBytes(offset, validCounter, result); offset -= 32;\n    \tboolToBytes(offset, name, result); offset -= 1;\n    \tboolToBytes(offset, website, result); offset -= 1;\n    \tboolToBytes(offset, email, result); offset -= 1;\n    \tfor(i=1; i<=count; i++){\n    \t\ttoken = pubTokens[i];\n    \t\tDummyToken basicToken = DummyToken(token.addr);\n    \t\tif(token.isValid){\n    \t\t\tbytes16ToBytesR(offset, token.symbol, result); offset -= 16;\n    \t\t\taddressToBytes(offset, token.addr, result); offset -= 20;\n    \t\t\tuintToBytes(offset, token.decimals, result); offset -= 8;\n                uint256 balance = basicToken.balanceOf(_owner);\n    \t\t\tuintToBytes(offset, balance, result); offset -= 32;\n    \t\t\tif(name){\n    \t\t\t\tbytes16ToBytesR(offset, token.name, result); offset -= 16;\n    \t\t\t}\n    \t\t\tif(website) {\n    \t\t\t\tbytes32ToBytesR(offset, token.website, result); offset -= 32;\n    \t\t\t}\n    \t\t\tif(email) {\n    \t\t\t\tbytes32ToBytesR(offset, token.email, result); offset -= 32;\n    \t\t\t}\n    \t\t}\n    \t}\n    \treturn result;\n    }\n}",
  "sourcePath": "/home/kvhnuke/GitHub/utility-contracts/contracts/PublicTokens.sol",
  "compiler": {
    "name": "solc",
    "version": "0.4.19+commit.c4cbbb05.Emscripten.clang"
  },
  "schemaVersion": "2.0.0",
  "updatedAt": "2018-04-11T03:57:24.738Z"
}