{
  "contractName": "PublicTokens",
  "abi": [
    {
      "inputs": [],
      "stateMutability": "nonpayable",
      "type": "constructor"
    },
    {
      "inputs": [
        {
          "internalType": "address",
          "name": "",
          "type": "address"
        }
      ],
      "name": "idMap",
      "outputs": [
        {
          "internalType": "uint256",
          "name": "",
          "type": "uint256"
        }
      ],
      "stateMutability": "view",
      "type": "function"
    },
    {
      "inputs": [
        {
          "internalType": "address",
          "name": "",
          "type": "address"
        }
      ],
      "name": "moderator",
      "outputs": [
        {
          "internalType": "bool",
          "name": "",
          "type": "bool"
        }
      ],
      "stateMutability": "view",
      "type": "function"
    },
    {
      "inputs": [],
      "name": "owner",
      "outputs": [
        {
          "internalType": "address",
          "name": "",
          "type": "address"
        }
      ],
      "stateMutability": "view",
      "type": "function"
    },
    {
      "inputs": [
        {
          "internalType": "uint256",
          "name": "",
          "type": "uint256"
        }
      ],
      "name": "pubTokens",
      "outputs": [
        {
          "internalType": "bytes16",
          "name": "name",
          "type": "bytes16"
        },
        {
          "internalType": "bytes16",
          "name": "symbol",
          "type": "bytes16"
        },
        {
          "internalType": "address",
          "name": "addr",
          "type": "address"
        },
        {
          "internalType": "uint8",
          "name": "decimals",
          "type": "uint8"
        },
        {
          "internalType": "bytes32",
          "name": "website",
          "type": "bytes32"
        },
        {
          "internalType": "bytes32",
          "name": "email",
          "type": "bytes32"
        },
        {
          "internalType": "bool",
          "name": "isValid",
          "type": "bool"
        }
      ],
      "stateMutability": "view",
      "type": "function"
    },
    {
      "inputs": [],
      "name": "tokenCount",
      "outputs": [
        {
          "internalType": "uint256",
          "name": "",
          "type": "uint256"
        }
      ],
      "stateMutability": "view",
      "type": "function"
    },
    {
      "inputs": [],
      "name": "tokenValidCount",
      "outputs": [
        {
          "internalType": "uint256",
          "name": "",
          "type": "uint256"
        }
      ],
      "stateMutability": "view",
      "type": "function"
    },
    {
      "inputs": [
        {
          "internalType": "address",
          "name": "addr",
          "type": "address"
        }
      ],
      "name": "addModerator",
      "outputs": [],
      "stateMutability": "nonpayable",
      "type": "function"
    },
    {
      "inputs": [
        {
          "internalType": "address",
          "name": "addr",
          "type": "address"
        }
      ],
      "name": "removeModerator",
      "outputs": [],
      "stateMutability": "nonpayable",
      "type": "function"
    },
    {
      "inputs": [
        {
          "internalType": "address",
          "name": "addr",
          "type": "address"
        },
        {
          "internalType": "uint256",
          "name": "from",
          "type": "uint256"
        },
        {
          "internalType": "uint256",
          "name": "amount",
          "type": "uint256"
        }
      ],
      "name": "loadTokensFromContract",
      "outputs": [],
      "stateMutability": "nonpayable",
      "type": "function"
    },
    {
      "inputs": [
        {
          "internalType": "bytes16",
          "name": "name",
          "type": "bytes16"
        },
        {
          "internalType": "bytes16",
          "name": "symbol",
          "type": "bytes16"
        },
        {
          "internalType": "address",
          "name": "addr",
          "type": "address"
        },
        {
          "internalType": "uint8",
          "name": "decimals",
          "type": "uint8"
        },
        {
          "internalType": "bytes32",
          "name": "website",
          "type": "bytes32"
        },
        {
          "internalType": "bytes32",
          "name": "email",
          "type": "bytes32"
        }
      ],
      "name": "addSetToken",
      "outputs": [],
      "stateMutability": "nonpayable",
      "type": "function"
    },
    {
      "inputs": [
        {
          "internalType": "address",
          "name": "addr",
          "type": "address"
        }
      ],
      "name": "disableToken",
      "outputs": [],
      "stateMutability": "nonpayable",
      "type": "function"
    },
    {
      "inputs": [
        {
          "internalType": "address",
          "name": "addr",
          "type": "address"
        }
      ],
      "name": "enableToken",
      "outputs": [],
      "stateMutability": "nonpayable",
      "type": "function"
    },
    {
      "inputs": [
        {
          "internalType": "address",
          "name": "addr",
          "type": "address"
        }
      ],
      "name": "getToken",
      "outputs": [
        {
          "internalType": "bytes16",
          "name": "",
          "type": "bytes16"
        },
        {
          "internalType": "bytes16",
          "name": "",
          "type": "bytes16"
        },
        {
          "internalType": "address",
          "name": "",
          "type": "address"
        },
        {
          "internalType": "uint8",
          "name": "",
          "type": "uint8"
        },
        {
          "internalType": "bytes32",
          "name": "",
          "type": "bytes32"
        },
        {
          "internalType": "bytes32",
          "name": "",
          "type": "bytes32"
        }
      ],
      "stateMutability": "view",
      "type": "function"
    },
    {
      "inputs": [
        {
          "internalType": "uint256",
          "name": "id",
          "type": "uint256"
        }
      ],
      "name": "getTokenById",
      "outputs": [
        {
          "internalType": "bytes16",
          "name": "",
          "type": "bytes16"
        },
        {
          "internalType": "bytes16",
          "name": "",
          "type": "bytes16"
        },
        {
          "internalType": "address",
          "name": "",
          "type": "address"
        },
        {
          "internalType": "uint8",
          "name": "",
          "type": "uint8"
        },
        {
          "internalType": "bytes32",
          "name": "",
          "type": "bytes32"
        },
        {
          "internalType": "bytes32",
          "name": "",
          "type": "bytes32"
        }
      ],
      "stateMutability": "view",
      "type": "function"
    }
  ],
  "bytecode": "0x608060405260008055600060015534801561001957600080fd5b5033600260006101000a81548173ffffffffffffffffffffffffffffffffffffffff021916908373ffffffffffffffffffffffffffffffffffffffff160217905550611a878061006a6000396000f3fe608060405234801561001057600080fd5b50600436106100ea5760003560e01c80639f181b5e1161008c578063b532e4cb11610066578063b532e4cb1461057b578063c690908a146105bf578063dc9a469814610603578063fae0cc191461065b576100ea565b80639f181b5e146104e3578063a593f0ba14610501578063b1bed4f51461051f576100ea565b80636b941e10116100c85780636b941e101461031a5780637bdc60d914610372578063869d785f146104555780638da5cb5b14610499576100ea565b80631f85eb3f146100ef57806323e27a64146101dd5780635977043814610221575b600080fd5b61011b6004803603602081101561010557600080fd5b81019080803590602001909291905050506106fa565b60405180886fffffffffffffffffffffffffffffffff19166fffffffffffffffffffffffffffffffff19168152602001876fffffffffffffffffffffffffffffffff19166fffffffffffffffffffffffffffffffff191681526020018673ffffffffffffffffffffffffffffffffffffffff1673ffffffffffffffffffffffffffffffffffffffff1681526020018560ff1660ff1681526020018481526020018381526020018215151515815260200197505050505050505060405180910390f35b61021f600480360360208110156101f357600080fd5b81019080803573ffffffffffffffffffffffffffffffffffffffff169060200190929190505050610790565b005b6102636004803603602081101561023757600080fd5b81019080803573ffffffffffffffffffffffffffffffffffffffff169060200190929190505050610a36565b60405180876fffffffffffffffffffffffffffffffff19166fffffffffffffffffffffffffffffffff19168152602001866fffffffffffffffffffffffffffffffff19166fffffffffffffffffffffffffffffffff191681526020018573ffffffffffffffffffffffffffffffffffffffff1673ffffffffffffffffffffffffffffffffffffffff1681526020018460ff1660ff168152602001838152602001828152602001965050505050505060405180910390f35b61035c6004803603602081101561033057600080fd5b81019080803573ffffffffffffffffffffffffffffffffffffffff169060200190929190505050610bf6565b6040518082815260200191505060405180910390f35b61039e6004803603602081101561038857600080fd5b8101908080359060200190929190505050610c0e565b60405180876fffffffffffffffffffffffffffffffff19166fffffffffffffffffffffffffffffffff19168152602001866fffffffffffffffffffffffffffffffff19166fffffffffffffffffffffffffffffffff191681526020018573ffffffffffffffffffffffffffffffffffffffff1673ffffffffffffffffffffffffffffffffffffffff1681526020018460ff1660ff168152602001838152602001828152602001965050505050505060405180910390f35b6104976004803603602081101561046b57600080fd5b81019080803573ffffffffffffffffffffffffffffffffffffffff169060200190929190505050610d8f565b005b6104a1610ead565b604051808273ffffffffffffffffffffffffffffffffffffffff1673ffffffffffffffffffffffffffffffffffffffff16815260200191505060405180910390f35b6104eb610ed3565b6040518082815260200191505060405180910390f35b610509610ed9565b6040518082815260200191505060405180910390f35b6105616004803603602081101561053557600080fd5b81019080803573ffffffffffffffffffffffffffffffffffffffff169060200190929190505050610edf565b604051808215151515815260200191505060405180910390f35b6105bd6004803603602081101561059157600080fd5b81019080803573ffffffffffffffffffffffffffffffffffffffff169060200190929190505050610eff565b005b610601600480360360208110156105d557600080fd5b81019080803573ffffffffffffffffffffffffffffffffffffffff16906020019092919050505061101d565b005b6106596004803603606081101561061957600080fd5b81019080803573ffffffffffffffffffffffffffffffffffffffff16906020019092919080359060200190929190803590602001909291905050506112c2565b005b6106f8600480360360c081101561067157600080fd5b8101908080356fffffffffffffffffffffffffffffffff1916906020019092919080356fffffffffffffffffffffffffffffffff19169060200190929190803573ffffffffffffffffffffffffffffffffffffffff169060200190929190803560ff1690602001909291908035906020019092919080359060200190929190505050611566565b005b60036020528060005260406000206000915090508060000160009054906101000a900460801b908060000160109054906101000a900460801b908060010160009054906101000a900473ffffffffffffffffffffffffffffffffffffffff16908060010160149054906101000a900460ff16908060020154908060030154908060040160009054906101000a900460ff16905087565b3373ffffffffffffffffffffffffffffffffffffffff16600260009054906101000a900473ffffffffffffffffffffffffffffffffffffffff1673ffffffffffffffffffffffffffffffffffffffff16148061083c575060011515600460003373ffffffffffffffffffffffffffffffffffffffff1673ffffffffffffffffffffffffffffffffffffffff16815260200190815260200160002060009054906101000a900460ff161515145b6108ae576040517f08c379a000000000000000000000000000000000000000000000000000000000815260040180806020018281038252600e8152602001807f6f6e6c79206d6f64657265746f7200000000000000000000000000000000000081525060200191505060405180910390fd5b80600073ffffffffffffffffffffffffffffffffffffffff168173ffffffffffffffffffffffffffffffffffffffff161415610952576040517f08c379a000000000000000000000000000000000000000000000000000000000815260040180806020018281038252600f8152602001807f696e76616c69642061646472657373000000000000000000000000000000000081525060200191505060405180910390fd5b600060036000600560008673ffffffffffffffffffffffffffffffffffffffff1673ffffffffffffffffffffffffffffffffffffffff16815260200190815260200160002054815260200190815260200160002090508273ffffffffffffffffffffffffffffffffffffffff168160010160009054906101000a900473ffffffffffffffffffffffffffffffffffffffff1673ffffffffffffffffffffffffffffffffffffffff161415610a315760008160040160006101000a81548160ff021916908315150217905550600160008154809291906001900391905055505b505050565b600080600080600080610a476119cd565b60036000600560008b73ffffffffffffffffffffffffffffffffffffffff1673ffffffffffffffffffffffffffffffffffffffff1681526020019081526020016000205481526020019081526020016000206040518060e00160405290816000820160009054906101000a900460801b6fffffffffffffffffffffffffffffffff19166fffffffffffffffffffffffffffffffff191681526020016000820160109054906101000a900460801b6fffffffffffffffffffffffffffffffff19166fffffffffffffffffffffffffffffffff191681526020016001820160009054906101000a900473ffffffffffffffffffffffffffffffffffffffff1673ffffffffffffffffffffffffffffffffffffffff1673ffffffffffffffffffffffffffffffffffffffff1681526020016001820160149054906101000a900460ff1660ff1660ff16815260200160028201548152602001600382015481526020016004820160009054906101000a900460ff1615151515815250509050806000015181602001518260400151836060015184608001518560a001519650965096509650965096505091939550919395565b60056020528060005260406000206000915090505481565b600080600080600080610c1f6119cd565b600360008981526020019081526020016000206040518060e00160405290816000820160009054906101000a900460801b6fffffffffffffffffffffffffffffffff19166fffffffffffffffffffffffffffffffff191681526020016000820160109054906101000a900460801b6fffffffffffffffffffffffffffffffff19166fffffffffffffffffffffffffffffffff191681526020016001820160009054906101000a900473ffffffffffffffffffffffffffffffffffffffff1673ffffffffffffffffffffffffffffffffffffffff1673ffffffffffffffffffffffffffffffffffffffff1681526020016001820160149054906101000a900460ff1660ff1660ff16815260200160028201548152602001600382015481526020016004820160009054906101000a900460ff1615151515815250509050806000015181602001518260400151836060015184608001518560a001519650965096509650965096505091939550919395565b3373ffffffffffffffffffffffffffffffffffffffff16600260009054906101000a900473ffffffffffffffffffffffffffffffffffffffff1673ffffffffffffffffffffffffffffffffffffffff1614610e52576040517f08c379a000000000000000000000000000000000000000000000000000000000815260040180806020018281038252600a8152602001807f6f6e6c79206f776e65720000000000000000000000000000000000000000000081525060200191505060405180910390fd5b6000600460008373ffffffffffffffffffffffffffffffffffffffff1673ffffffffffffffffffffffffffffffffffffffff16815260200190815260200160002060006101000a81548160ff02191690831515021790555050565b600260009054906101000a900473ffffffffffffffffffffffffffffffffffffffff1681565b60005481565b60015481565b60046020528060005260406000206000915054906101000a900460ff1681565b3373ffffffffffffffffffffffffffffffffffffffff16600260009054906101000a900473ffffffffffffffffffffffffffffffffffffffff1673ffffffffffffffffffffffffffffffffffffffff1614610fc2576040517f08c379a000000000000000000000000000000000000000000000000000000000815260040180806020018281038252600a8152602001807f6f6e6c79206f776e65720000000000000000000000000000000000000000000081525060200191505060405180910390fd5b6001600460008373ffffffffffffffffffffffffffffffffffffffff1673ffffffffffffffffffffffffffffffffffffffff16815260200190815260200160002060006101000a81548160ff02191690831515021790555050565b3373ffffffffffffffffffffffffffffffffffffffff16600260009054906101000a900473ffffffffffffffffffffffffffffffffffffffff1673ffffffffffffffffffffffffffffffffffffffff1614806110c9575060011515600460003373ffffffffffffffffffffffffffffffffffffffff1673ffffffffffffffffffffffffffffffffffffffff16815260200190815260200160002060009054906101000a900460ff161515145b61113b576040517f08c379a000000000000000000000000000000000000000000000000000000000815260040180806020018281038252600e8152602001807f6f6e6c79206d6f64657265746f7200000000000000000000000000000000000081525060200191505060405180910390fd5b80600073ffffffffffffffffffffffffffffffffffffffff168173ffffffffffffffffffffffffffffffffffffffff1614156111df576040517f08c379a000000000000000000000000000000000000000000000000000000000815260040180806020018281038252600f8152602001807f696e76616c69642061646472657373000000000000000000000000000000000081525060200191505060405180910390fd5b600060036000600560008673ffffffffffffffffffffffffffffffffffffffff1673ffffffffffffffffffffffffffffffffffffffff16815260200190815260200160002054815260200190815260200160002090508273ffffffffffffffffffffffffffffffffffffffff168160010160009054906101000a900473ffffffffffffffffffffffffffffffffffffffff1673ffffffffffffffffffffffffffffffffffffffff1614156112bd5760018160040160006101000a81548160ff0219169083151502179055506001600081548092919060010191905055505b505050565b3373ffffffffffffffffffffffffffffffffffffffff16600260009054906101000a900473ffffffffffffffffffffffffffffffffffffffff1673ffffffffffffffffffffffffffffffffffffffff1614611385576040517f08c379a000000000000000000000000000000000000000000000000000000000815260040180806020018281038252600a8152602001807f6f6e6c79206f776e65720000000000000000000000000000000000000000000081525060200191505060405180910390fd5b600083905060008390505b82840181101561155f576113a26119cd565b8273ffffffffffffffffffffffffffffffffffffffff16631f85eb3f836040518263ffffffff1660e01b81526004018082815260200191505060e06040518083038186803b1580156113f357600080fd5b505afa158015611407573d6000803e3d6000fd5b505050506040513d60e081101561141d57600080fd5b81019080805190602001909291908051906020019092919080519060200190929190805190602001909291908051906020019092919080519060200190929190805190602001909291905050508760000188602001896040018a6060018b6080018c60a0018d60c001871515151581525087815250878152508760ff1660ff168152508773ffffffffffffffffffffffffffffffffffffffff1673ffffffffffffffffffffffffffffffffffffffff16815250876fffffffffffffffffffffffffffffffff19166fffffffffffffffffffffffffffffffff1916815250876fffffffffffffffffffffffffffffffff19166fffffffffffffffffffffffffffffffff191681525050505050505050611551816000015182602001518360400151846060015185608001518660a00151611566565b508080600101915050611390565b5050505050565b3373ffffffffffffffffffffffffffffffffffffffff16600260009054906101000a900473ffffffffffffffffffffffffffffffffffffffff1673ffffffffffffffffffffffffffffffffffffffff161480611612575060011515600460003373ffffffffffffffffffffffffffffffffffffffff1673ffffffffffffffffffffffffffffffffffffffff16815260200190815260200160002060009054906101000a900460ff161515145b611684576040517f08c379a000000000000000000000000000000000000000000000000000000000815260040180806020018281038252600e8152602001807f6f6e6c79206d6f64657265746f7200000000000000000000000000000000000081525060200191505060405180910390fd5b83600073ffffffffffffffffffffffffffffffffffffffff168173ffffffffffffffffffffffffffffffffffffffff161415611728576040517f08c379a000000000000000000000000000000000000000000000000000000000815260040180806020018281038252600f8152602001807f696e76616c69642061646472657373000000000000000000000000000000000081525060200191505060405180910390fd5b846000813b905060008163ffffffff16116117ab576040517f08c379a000000000000000000000000000000000000000000000000000000000815260040180806020018281038252600e8152602001807f4e6f74206120636f6e747261637400000000000000000000000000000000000081525060200191505060405180910390fd5b600060036000600560008b73ffffffffffffffffffffffffffffffffffffffff1673ffffffffffffffffffffffffffffffffffffffff1681526020019081526020016000205481526020019081526020016000209050600073ffffffffffffffffffffffffffffffffffffffff168160010160009054906101000a900473ffffffffffffffffffffffffffffffffffffffff1673ffffffffffffffffffffffffffffffffffffffff1614156118f757600080815480929190600101919050555060016000815480929190600101919050555060036000805481526020019081526020016000209050600054600560008a73ffffffffffffffffffffffffffffffffffffffff1673ffffffffffffffffffffffffffffffffffffffff1681526020019081526020016000208190555060018160040160006101000a81548160ff0219169083151502179055505b898160000160006101000a8154816fffffffffffffffffffffffffffffffff021916908360801c0217905550888160000160106101000a8154816fffffffffffffffffffffffffffffffff021916908360801c0217905550878160010160006101000a81548173ffffffffffffffffffffffffffffffffffffffff021916908373ffffffffffffffffffffffffffffffffffffffff160217905550868160010160146101000a81548160ff021916908360ff16021790555085816002018190555084816003018190555050505050505050505050565b6040518060e0016040528060006fffffffffffffffffffffffffffffffff1916815260200160006fffffffffffffffffffffffffffffffff19168152602001600073ffffffffffffffffffffffffffffffffffffffff168152602001600060ff1681526020016000801916815260200160008019168152602001600015158152509056fea26469706673582212202d2f4b0cf45f4abdc0c607408a9f97ceb33e913c8b6060af2c796219f180ded364736f6c63430006040033",
  "source": "pragma solidity ^0.6.4;\n\n\ncontract PublicTokens {\n    uint256 public tokenCount = 0; //total count of all added tokens\n    uint256 public tokenValidCount = 0; //count of all valid tokens isValid!=false\n    address public owner;\n    struct Token {\n        bytes16 name; // Name of the token\n        bytes16 symbol; // Symbol of the token\n        address addr; // Address of the token contract\n        uint8 decimals; // decimals of the token\n        bytes32 website; // website of the token\n        bytes32 email; // support email of the token\n        bool isValid; //whether the token is valid or not\n    }\n    mapping(uint256 => Token) public pubTokens;\n    mapping(address => bool) public moderator;\n    mapping(address => uint256) public idMap;\n    modifier owner_only() {\n        require(owner == msg.sender, \"only owner\");\n        _;\n    }\n    modifier only_mod() {\n        require(\n            owner == msg.sender || moderator[msg.sender] == true,\n            \"only moderetor\"\n        );\n        _;\n    }\n    modifier only_contract(address addr) {\n        uint32 size;\n        assembly {\n            size := extcodesize(addr)\n        }\n        require(size > 0, \"Not a contract\");\n        _;\n    }\n    modifier no_null(address addr) {\n        require(addr != address(0), \"invalid address\");\n        _;\n    }\n\n    constructor() public {\n        owner = msg.sender;\n    }\n\n    function addModerator(address addr) public owner_only {\n        moderator[addr] = true;\n    }\n\n    function removeModerator(address addr) public owner_only {\n        moderator[addr] = false;\n    }\n\n    function loadTokensFromContract(address addr, uint256 from, uint256 amount)\n        public\n        owner_only\n    {\n        PublicTokens pubT = PublicTokens(addr);\n        for (uint256 i = from; i < (from + amount); i++) {\n            Token memory token;\n            (\n                token.name,\n                token.symbol,\n                token.addr,\n                token.decimals,\n                token.website,\n                token.email,\n                token.isValid\n            ) = pubT.pubTokens(i);\n            addSetToken(\n                token.name,\n                token.symbol,\n                token.addr,\n                token.decimals,\n                token.website,\n                token.email\n            );\n        }\n    }\n\n    function addSetToken(\n        bytes16 name,\n        bytes16 symbol,\n        address addr,\n        uint8 decimals,\n        bytes32 website,\n        bytes32 email\n    ) public only_mod no_null(addr) only_contract(addr) {\n        Token storage token = pubTokens[idMap[addr]];\n        if (token.addr == address(0)) {\n            tokenCount++;\n            tokenValidCount++;\n            token = pubTokens[tokenCount];\n            idMap[addr] = tokenCount;\n            token.isValid = true;\n        }\n        token.name = name;\n        token.symbol = symbol;\n        token.addr = addr;\n        token.decimals = decimals;\n        token.website = website;\n        token.email = email;\n    }\n\n    function disableToken(address addr) public only_mod no_null(addr) {\n        Token storage token = pubTokens[idMap[addr]];\n        if (token.addr == addr) {\n            token.isValid = false;\n            tokenValidCount--;\n        }\n    }\n\n    function enableToken(address addr) public only_mod no_null(addr) {\n        Token storage token = pubTokens[idMap[addr]];\n        if (token.addr == addr) {\n            token.isValid = true;\n            tokenValidCount++;\n        }\n    }\n\n    function getToken(address addr)\n        public\n        view\n        returns (bytes16, bytes16, address, uint8, bytes32, bytes32)\n    {\n        Token memory token = pubTokens[idMap[addr]];\n        return (\n            token.name,\n            token.symbol,\n            token.addr,\n            token.decimals,\n            token.website,\n            token.email\n        );\n    }\n\n    function getTokenById(uint256 id)\n        public\n        view\n        returns (bytes16, bytes16, address, uint8, bytes32, bytes32)\n    {\n        Token memory token = pubTokens[id];\n        return (\n            token.name,\n            token.symbol,\n            token.addr,\n            token.decimals,\n            token.website,\n            token.email\n        );\n    }\n}\n",
  "sourcePath": "/home/kvhnuke/GitHub/utility-contracts/contracts/token-balances/PublicTokens.sol",
  "compiler": {
    "name": "solc",
    "version": "0.6.4+commit.1dca32f3.Emscripten.clang"
  },
  "schemaVersion": "3.1.0",
  "updatedAt": "2020-04-30T00:50:13.971Z",
  "devdoc": {
    "methods": {}
  },
  "userdoc": {
    "methods": {}
  }
}