{
  "contractName": "PublicTokens",
  "abi": [
    {
      "constant": true,
      "inputs": [
        {
          "name": "",
          "type": "uint256"
        }
      ],
      "name": "pubTokens",
      "outputs": [
        {
          "name": "name",
          "type": "bytes16"
        },
        {
          "name": "symbol",
          "type": "bytes16"
        },
        {
          "name": "addr",
          "type": "address"
        },
        {
          "name": "decimals",
          "type": "uint8"
        },
        {
          "name": "website",
          "type": "bytes32"
        },
        {
          "name": "email",
          "type": "bytes32"
        },
        {
          "name": "isValid",
          "type": "bool"
        }
      ],
      "payable": false,
      "stateMutability": "view",
      "type": "function"
    },
    {
      "constant": true,
      "inputs": [
        {
          "name": "",
          "type": "address"
        }
      ],
      "name": "idMap",
      "outputs": [
        {
          "name": "",
          "type": "uint256"
        }
      ],
      "payable": false,
      "stateMutability": "view",
      "type": "function"
    },
    {
      "constant": true,
      "inputs": [],
      "name": "owner",
      "outputs": [
        {
          "name": "",
          "type": "address"
        }
      ],
      "payable": false,
      "stateMutability": "view",
      "type": "function"
    },
    {
      "constant": true,
      "inputs": [],
      "name": "tokenCount",
      "outputs": [
        {
          "name": "",
          "type": "uint256"
        }
      ],
      "payable": false,
      "stateMutability": "view",
      "type": "function"
    },
    {
      "constant": true,
      "inputs": [],
      "name": "tokenValidCount",
      "outputs": [
        {
          "name": "",
          "type": "uint256"
        }
      ],
      "payable": false,
      "stateMutability": "view",
      "type": "function"
    },
    {
      "constant": true,
      "inputs": [
        {
          "name": "",
          "type": "address"
        }
      ],
      "name": "moderator",
      "outputs": [
        {
          "name": "",
          "type": "bool"
        }
      ],
      "payable": false,
      "stateMutability": "view",
      "type": "function"
    },
    {
      "inputs": [],
      "payable": false,
      "stateMutability": "nonpayable",
      "type": "constructor"
    },
    {
      "constant": false,
      "inputs": [
        {
          "name": "addr",
          "type": "address"
        }
      ],
      "name": "addModerator",
      "outputs": [],
      "payable": false,
      "stateMutability": "nonpayable",
      "type": "function"
    },
    {
      "constant": false,
      "inputs": [
        {
          "name": "addr",
          "type": "address"
        }
      ],
      "name": "removeModerator",
      "outputs": [],
      "payable": false,
      "stateMutability": "nonpayable",
      "type": "function"
    },
    {
      "constant": false,
      "inputs": [
        {
          "name": "addr",
          "type": "address"
        },
        {
          "name": "from",
          "type": "uint256"
        },
        {
          "name": "amount",
          "type": "uint256"
        }
      ],
      "name": "loadTokensFromContract",
      "outputs": [],
      "payable": false,
      "stateMutability": "nonpayable",
      "type": "function"
    },
    {
      "constant": false,
      "inputs": [
        {
          "name": "name",
          "type": "bytes16"
        },
        {
          "name": "symbol",
          "type": "bytes16"
        },
        {
          "name": "addr",
          "type": "address"
        },
        {
          "name": "decimals",
          "type": "uint8"
        },
        {
          "name": "website",
          "type": "bytes32"
        },
        {
          "name": "email",
          "type": "bytes32"
        }
      ],
      "name": "addSetToken",
      "outputs": [],
      "payable": false,
      "stateMutability": "nonpayable",
      "type": "function"
    },
    {
      "constant": false,
      "inputs": [
        {
          "name": "addr",
          "type": "address"
        }
      ],
      "name": "disableToken",
      "outputs": [],
      "payable": false,
      "stateMutability": "nonpayable",
      "type": "function"
    },
    {
      "constant": false,
      "inputs": [
        {
          "name": "addr",
          "type": "address"
        }
      ],
      "name": "enableToken",
      "outputs": [],
      "payable": false,
      "stateMutability": "nonpayable",
      "type": "function"
    },
    {
      "constant": true,
      "inputs": [
        {
          "name": "addr",
          "type": "address"
        }
      ],
      "name": "getToken",
      "outputs": [
        {
          "name": "",
          "type": "bytes16"
        },
        {
          "name": "",
          "type": "bytes16"
        },
        {
          "name": "",
          "type": "address"
        },
        {
          "name": "",
          "type": "uint8"
        },
        {
          "name": "",
          "type": "bytes32"
        },
        {
          "name": "",
          "type": "bytes32"
        }
      ],
      "payable": false,
      "stateMutability": "view",
      "type": "function"
    },
    {
      "constant": true,
      "inputs": [
        {
          "name": "id",
          "type": "uint256"
        }
      ],
      "name": "getTokenById",
      "outputs": [
        {
          "name": "",
          "type": "bytes16"
        },
        {
          "name": "",
          "type": "bytes16"
        },
        {
          "name": "",
          "type": "address"
        },
        {
          "name": "",
          "type": "uint8"
        },
        {
          "name": "",
          "type": "bytes32"
        },
        {
          "name": "",
          "type": "bytes32"
        }
      ],
      "payable": false,
      "stateMutability": "view",
      "type": "function"
    }
  ],
  "bytecode": "0x608060405260008055600060015534801561001957600080fd5b5033600260006101000a81548173ffffffffffffffffffffffffffffffffffffffff021916908373ffffffffffffffffffffffffffffffffffffffff160217905550611b4d8061006a6000396000f3006080604052600436106100d0576000357c0100000000000000000000000000000000000000000000000000000000900463ffffffff1680631f85eb3f146100d557806323e27a64146101d257806359770438146102155780636b941e101461031d5780637bdc60d914610374578063869d785f146104665780638da5cb5b146104a95780639f181b5e14610500578063a593f0ba1461052b578063b1bed4f514610556578063b532e4cb146105b1578063c690908a146105f4578063dc9a469814610637578063fae0cc191461068e575b600080fd5b3480156100e157600080fd5b5061010060048036038101908080359060200190929190505050610734565b60405180886fffffffffffffffffffffffffffffffff19166fffffffffffffffffffffffffffffffff19168152602001876fffffffffffffffffffffffffffffffff19166fffffffffffffffffffffffffffffffff191681526020018673ffffffffffffffffffffffffffffffffffffffff1673ffffffffffffffffffffffffffffffffffffffff1681526020018560ff1660ff168152602001846000191660001916815260200183600019166000191681526020018215151515815260200197505050505050505060405180910390f35b3480156101de57600080fd5b50610213600480360381019080803573ffffffffffffffffffffffffffffffffffffffff1690602001909291905050506107ea565b005b34801561022157600080fd5b50610256600480360381019080803573ffffffffffffffffffffffffffffffffffffffff169060200190929190505050610a7e565b60405180876fffffffffffffffffffffffffffffffff19166fffffffffffffffffffffffffffffffff19168152602001866fffffffffffffffffffffffffffffffff19166fffffffffffffffffffffffffffffffff191681526020018573ffffffffffffffffffffffffffffffffffffffff1673ffffffffffffffffffffffffffffffffffffffff1681526020018460ff1660ff16815260200183600019166000191681526020018260001916600019168152602001965050505050505060405180910390f35b34801561032957600080fd5b5061035e600480360381019080803573ffffffffffffffffffffffffffffffffffffffff169060200190929190505050610c6f565b6040518082815260200191505060405180910390f35b34801561038057600080fd5b5061039f60048036038101908080359060200190929190505050610c87565b60405180876fffffffffffffffffffffffffffffffff19166fffffffffffffffffffffffffffffffff19168152602001866fffffffffffffffffffffffffffffffff19166fffffffffffffffffffffffffffffffff191681526020018573ffffffffffffffffffffffffffffffffffffffff1673ffffffffffffffffffffffffffffffffffffffff1681526020018460ff1660ff16815260200183600019166000191681526020018260001916600019168152602001965050505050505060405180910390f35b34801561047257600080fd5b506104a7600480360381019080803573ffffffffffffffffffffffffffffffffffffffff169060200190929190505050610e39565b005b3480156104b557600080fd5b506104be610f59565b604051808273ffffffffffffffffffffffffffffffffffffffff1673ffffffffffffffffffffffffffffffffffffffff16815260200191505060405180910390f35b34801561050c57600080fd5b50610515610f7f565b6040518082815260200191505060405180910390f35b34801561053757600080fd5b50610540610f85565b6040518082815260200191505060405180910390f35b34801561056257600080fd5b50610597600480360381019080803573ffffffffffffffffffffffffffffffffffffffff169060200190929190505050610f8b565b604051808215151515815260200191505060405180910390f35b3480156105bd57600080fd5b506105f2600480360381019080803573ffffffffffffffffffffffffffffffffffffffff169060200190929190505050610fab565b005b34801561060057600080fd5b50610635600480360381019080803573ffffffffffffffffffffffffffffffffffffffff1690602001909291905050506110cb565b005b34801561064357600080fd5b5061068c600480360381019080803573ffffffffffffffffffffffffffffffffffffffff169060200190929190803590602001909291908035906020019092919050505061135e565b005b34801561069a57600080fd5b5061073260048036038101908080356fffffffffffffffffffffffffffffffff1916906020019092919080356fffffffffffffffffffffffffffffffff19169060200190929190803573ffffffffffffffffffffffffffffffffffffffff169060200190929190803560ff16906020019092919080356000191690602001909291908035600019169060200190929190505050611631565b005b60036020528060005260406000206000915090508060000160009054906101000a900470010000000000000000000000000000000002908060000160109054906101000a900470010000000000000000000000000000000002908060010160009054906101000a900473ffffffffffffffffffffffffffffffffffffffff16908060010160149054906101000a900460ff16908060020154908060030154908060040160009054906101000a900460ff16905087565b60003373ffffffffffffffffffffffffffffffffffffffff16600260009054906101000a900473ffffffffffffffffffffffffffffffffffffffff1673ffffffffffffffffffffffffffffffffffffffff161480610898575060011515600460003373ffffffffffffffffffffffffffffffffffffffff1673ffffffffffffffffffffffffffffffffffffffff16815260200190815260200160002060009054906101000a900460ff161515145b151561090c576040517f08c379a000000000000000000000000000000000000000000000000000000000815260040180806020018281038252600e8152602001807f6f6e6c79206d6f64657265746f7200000000000000000000000000000000000081525060200191505060405180910390fd5b8160008173ffffffffffffffffffffffffffffffffffffffff161415151561099c576040517f08c379a000000000000000000000000000000000000000000000000000000000815260040180806020018281038252600f8152602001807f696e76616c69642061646472657373000000000000000000000000000000000081525060200191505060405180910390fd5b60036000600560008673ffffffffffffffffffffffffffffffffffffffff1673ffffffffffffffffffffffffffffffffffffffff16815260200190815260200160002054815260200190815260200160002091508273ffffffffffffffffffffffffffffffffffffffff168260010160009054906101000a900473ffffffffffffffffffffffffffffffffffffffff1673ffffffffffffffffffffffffffffffffffffffff161415610a795760008260040160006101000a81548160ff021916908315150217905550600160008154809291906001900391905055505b505050565b600080600080600080610a8f611a9c565b60036000600560008b73ffffffffffffffffffffffffffffffffffffffff1673ffffffffffffffffffffffffffffffffffffffff16815260200190815260200160002054815260200190815260200160002060e060405190810160405290816000820160009054906101000a9004700100000000000000000000000000000000026fffffffffffffffffffffffffffffffff19166fffffffffffffffffffffffffffffffff191681526020016000820160109054906101000a9004700100000000000000000000000000000000026fffffffffffffffffffffffffffffffff19166fffffffffffffffffffffffffffffffff191681526020016001820160009054906101000a900473ffffffffffffffffffffffffffffffffffffffff1673ffffffffffffffffffffffffffffffffffffffff1673ffffffffffffffffffffffffffffffffffffffff1681526020016001820160149054906101000a900460ff1660ff1660ff1681526020016002820154600019166000191681526020016003820154600019166000191681526020016004820160009054906101000a900460ff1615151515815250509050806000015181602001518260400151836060015184608001518560a001519650965096509650965096505091939550919395565b60056020528060005260406000206000915090505481565b600080600080600080610c98611a9c565b6003600089815260200190815260200160002060e060405190810160405290816000820160009054906101000a9004700100000000000000000000000000000000026fffffffffffffffffffffffffffffffff19166fffffffffffffffffffffffffffffffff191681526020016000820160109054906101000a9004700100000000000000000000000000000000026fffffffffffffffffffffffffffffffff19166fffffffffffffffffffffffffffffffff191681526020016001820160009054906101000a900473ffffffffffffffffffffffffffffffffffffffff1673ffffffffffffffffffffffffffffffffffffffff1673ffffffffffffffffffffffffffffffffffffffff1681526020016001820160149054906101000a900460ff1660ff1660ff1681526020016002820154600019166000191681526020016003820154600019166000191681526020016004820160009054906101000a900460ff1615151515815250509050806000015181602001518260400151836060015184608001518560a001519650965096509650965096505091939550919395565b3373ffffffffffffffffffffffffffffffffffffffff16600260009054906101000a900473ffffffffffffffffffffffffffffffffffffffff1673ffffffffffffffffffffffffffffffffffffffff16141515610efe576040517f08c379a000000000000000000000000000000000000000000000000000000000815260040180806020018281038252600a8152602001807f6f6e6c79206f776e65720000000000000000000000000000000000000000000081525060200191505060405180910390fd5b6000600460008373ffffffffffffffffffffffffffffffffffffffff1673ffffffffffffffffffffffffffffffffffffffff16815260200190815260200160002060006101000a81548160ff02191690831515021790555050565b600260009054906101000a900473ffffffffffffffffffffffffffffffffffffffff1681565b60005481565b60015481565b60046020528060005260406000206000915054906101000a900460ff1681565b3373ffffffffffffffffffffffffffffffffffffffff16600260009054906101000a900473ffffffffffffffffffffffffffffffffffffffff1673ffffffffffffffffffffffffffffffffffffffff16141515611070576040517f08c379a000000000000000000000000000000000000000000000000000000000815260040180806020018281038252600a8152602001807f6f6e6c79206f776e65720000000000000000000000000000000000000000000081525060200191505060405180910390fd5b6001600460008373ffffffffffffffffffffffffffffffffffffffff1673ffffffffffffffffffffffffffffffffffffffff16815260200190815260200160002060006101000a81548160ff02191690831515021790555050565b60003373ffffffffffffffffffffffffffffffffffffffff16600260009054906101000a900473ffffffffffffffffffffffffffffffffffffffff1673ffffffffffffffffffffffffffffffffffffffff161480611179575060011515600460003373ffffffffffffffffffffffffffffffffffffffff1673ffffffffffffffffffffffffffffffffffffffff16815260200190815260200160002060009054906101000a900460ff161515145b15156111ed576040517f08c379a000000000000000000000000000000000000000000000000000000000815260040180806020018281038252600e8152602001807f6f6e6c79206d6f64657265746f7200000000000000000000000000000000000081525060200191505060405180910390fd5b8160008173ffffffffffffffffffffffffffffffffffffffff161415151561127d576040517f08c379a000000000000000000000000000000000000000000000000000000000815260040180806020018281038252600f8152602001807f696e76616c69642061646472657373000000000000000000000000000000000081525060200191505060405180910390fd5b60036000600560008673ffffffffffffffffffffffffffffffffffffffff1673ffffffffffffffffffffffffffffffffffffffff16815260200190815260200160002054815260200190815260200160002091508273ffffffffffffffffffffffffffffffffffffffff168260010160009054906101000a900473ffffffffffffffffffffffffffffffffffffffff1673ffffffffffffffffffffffffffffffffffffffff1614156113595760018260040160006101000a81548160ff0219169083151502179055506001600081548092919060010191905055505b505050565b600080611369611a9c565b3373ffffffffffffffffffffffffffffffffffffffff16600260009054906101000a900473ffffffffffffffffffffffffffffffffffffffff1673ffffffffffffffffffffffffffffffffffffffff1614151561142e576040517f08c379a000000000000000000000000000000000000000000000000000000000815260040180806020018281038252600a8152602001807f6f6e6c79206f776e65720000000000000000000000000000000000000000000081525060200191505060405180910390fd5b8592508491505b838501821015611629578273ffffffffffffffffffffffffffffffffffffffff16631f85eb3f836040518263ffffffff167c01000000000000000000000000000000000000000000000000000000000281526004018082815260200191505060e060405180830381600087803b1580156114ae57600080fd5b505af11580156114c2573d6000803e3d6000fd5b505050506040513d60e08110156114d857600080fd5b81019080805190602001909291908051906020019092919080519060200190929190805190602001909291908051906020019092919080519060200190929190805190602001909291905050508760000188602001896040018a6060018b6080018c60a0018d60c00187151515158152508760001916600019168152508760001916600019168152508760ff1660ff168152508773ffffffffffffffffffffffffffffffffffffffff1673ffffffffffffffffffffffffffffffffffffffff16815250876fffffffffffffffffffffffffffffffff19166fffffffffffffffffffffffffffffffff1916815250876fffffffffffffffffffffffffffffffff19166fffffffffffffffffffffffffffffffff19168152505050505050505061161c816000015182602001518360400151846060015185608001518660a00151611631565b8180600101925050611435565b505050505050565b60003373ffffffffffffffffffffffffffffffffffffffff16600260009054906101000a900473ffffffffffffffffffffffffffffffffffffffff1673ffffffffffffffffffffffffffffffffffffffff1614806116df575060011515600460003373ffffffffffffffffffffffffffffffffffffffff1673ffffffffffffffffffffffffffffffffffffffff16815260200190815260200160002060009054906101000a900460ff161515145b1515611753576040517f08c379a000000000000000000000000000000000000000000000000000000000815260040180806020018281038252600e8152602001807f6f6e6c79206d6f64657265746f7200000000000000000000000000000000000081525060200191505060405180910390fd5b8460008173ffffffffffffffffffffffffffffffffffffffff16141515156117e3576040517f08c379a000000000000000000000000000000000000000000000000000000000815260040180806020018281038252600f8152602001807f696e76616c69642061646472657373000000000000000000000000000000000081525060200191505060405180910390fd5b856000813b905060008163ffffffff16111515611868576040517f08c379a000000000000000000000000000000000000000000000000000000000815260040180806020018281038252600e8152602001807f4e6f74206120636f6e747261637400000000000000000000000000000000000081525060200191505060405180910390fd5b60036000600560008b73ffffffffffffffffffffffffffffffffffffffff1673ffffffffffffffffffffffffffffffffffffffff168152602001908152602001600020548152602001908152602001600020935060008460010160009054906101000a900473ffffffffffffffffffffffffffffffffffffffff1673ffffffffffffffffffffffffffffffffffffffff16141561199c57600080815480929190600101919050555060016000815480929190600101919050555060036000805481526020019081526020016000209350600054600560008a73ffffffffffffffffffffffffffffffffffffffff1673ffffffffffffffffffffffffffffffffffffffff1681526020019081526020016000208190555060018460040160006101000a81548160ff0219169083151502179055505b898460000160006101000a8154816fffffffffffffffffffffffffffffffff021916908370010000000000000000000000000000000090040217905550888460000160106101000a8154816fffffffffffffffffffffffffffffffff021916908370010000000000000000000000000000000090040217905550878460010160006101000a81548173ffffffffffffffffffffffffffffffffffffffff021916908373ffffffffffffffffffffffffffffffffffffffff160217905550868460010160146101000a81548160ff021916908360ff160217905550858460020181600019169055508484600301816000191690555050505050505050505050565b60e06040519081016040528060006fffffffffffffffffffffffffffffffff1916815260200160006fffffffffffffffffffffffffffffffff19168152602001600073ffffffffffffffffffffffffffffffffffffffff168152602001600060ff168152602001600080191681526020016000801916815260200160001515815250905600a165627a7a7230582070958715050ccdbd3a7a70e51d791d5076ee4793bdb39e12f9dabc86253edec00029",
  "source": "pragma solidity ^0.4.24;\ncontract PublicTokens {\n    uint public tokenCount = 0; //total count of all added tokens\n    uint public tokenValidCount = 0; //count of all valid tokens isValid!=false\n    address public owner;\n    struct Token {\n        bytes16 name; // Name of the token\n        bytes16 symbol;  // Symbol of the token\n        address addr; // Address of the token contract\n        uint8 decimals; // decimals of the token\n        bytes32 website;   // website of the token\n        bytes32 email; // support email of the token\n        bool isValid; //whether the token is valid or not\n    }\n    mapping(uint => Token) public pubTokens;\n    mapping(address => bool) public moderator;\n    mapping(address => uint) public idMap;\n    modifier owner_only() {\n        require(owner == msg.sender, \"only owner\");\n        _;\n    }\n    modifier only_mod() {\n        require(owner == msg.sender || moderator[msg.sender] == true, \"only moderetor\");\n        _;\n    }\n    modifier only_contract(address addr) {\n        uint32 size;\n        assembly {\n            size := extcodesize(addr)\n        }\n        require(size > 0, \"Not a contract\");\n        _;\n    }\n    modifier no_null(address addr) {\n        require(addr != 0x0, \"invalid address\");\n        _;\n    }\n    constructor () public {\n        owner = msg.sender;\n    }\n    function addModerator(address addr) public owner_only {\n        moderator[addr] = true;\n    }\n    function removeModerator(address addr) public owner_only {\n        moderator[addr] = false;\n    }\n    function loadTokensFromContract(address addr, uint from, uint amount) public owner_only{\n        PublicTokens pubT = PublicTokens(addr);\n        for(uint i = from; i < (from+amount); i++ ){\n            Token memory token;\n            (token.name, token.symbol, token.addr, token.decimals, token.website, token.email, token.isValid) = pubT.pubTokens(i);\n            addSetToken(token.name, token.symbol, token.addr, token.decimals, token.website, token.email);\n        }\n    }\n    function addSetToken(\n        bytes16 name, \n        bytes16 symbol, \n        address addr, \n        uint8 decimals, \n        bytes32 website, \n        bytes32 email) public only_mod no_null(addr) only_contract(addr) {\n        Token storage token = pubTokens[idMap[addr]];\n        if(token.addr == 0x0) {\n            tokenCount++;\n            tokenValidCount++;\n            token = pubTokens[tokenCount];\n            idMap[addr] = tokenCount;\n            token.isValid = true;\n    \t}\n        token.name = name;\n        token.symbol = symbol;\n        token.addr = addr;\n        token.decimals = decimals;\n        token.website = website;\n        token.email = email;\n    }\n    function disableToken(address addr) public only_mod no_null(addr) {\n        Token storage token = pubTokens[idMap[addr]];\n        if(token.addr == addr) {\n            token.isValid = false;\n            tokenValidCount--;\n    \t}\n    }\n    function enableToken(address addr) public only_mod no_null(addr) {\n        Token storage token = pubTokens[idMap[addr]];\n        if(token.addr == addr) {\n            token.isValid = true;\n            tokenValidCount++;\n    \t}\n    }\n    function getToken(address addr) public view returns (\n    \tbytes16, \n    \tbytes16, \n    \taddress, \n    \tuint8, \n    \tbytes32, \n    \tbytes32) {\n        Token memory token = pubTokens[idMap[addr]];\n        return (\n        \ttoken.name,\n        \ttoken.symbol,\n        \ttoken.addr,\n        \ttoken.decimals,\n        \ttoken.website,\n            token.email);\n    }\n    function getTokenById(uint id) public view returns (\n    \tbytes16, \n    \tbytes16, \n    \taddress, \n    \tuint8, \n    \tbytes32, \n    \tbytes32) {\n        Token memory token = pubTokens[id];\n        return (\n        \ttoken.name,\n        \ttoken.symbol,\n        \ttoken.addr,\n        \ttoken.decimals,\n        \ttoken.website,\n            token.email);\n    }\n}",
  "sourcePath": "/home/kvhnuke/GitHub/utility-contracts/contracts/token-balances/PublicTokens.sol",
  "compiler": {
    "name": "solc",
    "version": "0.4.26+commit.4563c3fc.Emscripten.clang"
  },
  "schemaVersion": "3.0.11",
  "updatedAt": "2019-06-26T04:51:10.213Z",
  "devdoc": {
    "methods": {}
  },
  "userdoc": {
    "methods": {}
  }
}