{
  "contractName": "PublicTokens",
  "abi": [
    {
      "constant": true,
      "inputs": [
        {
          "name": "",
          "type": "uint256"
        }
      ],
      "name": "pubTokens",
      "outputs": [
        {
          "name": "name",
          "type": "bytes16"
        },
        {
          "name": "symbol",
          "type": "bytes16"
        },
        {
          "name": "addr",
          "type": "address"
        },
        {
          "name": "decimals",
          "type": "uint8"
        },
        {
          "name": "website",
          "type": "bytes32"
        },
        {
          "name": "email",
          "type": "bytes32"
        },
        {
          "name": "isValid",
          "type": "bool"
        }
      ],
      "payable": false,
      "stateMutability": "view",
      "type": "function"
    },
    {
      "constant": true,
      "inputs": [
        {
          "name": "",
          "type": "address"
        }
      ],
      "name": "idMap",
      "outputs": [
        {
          "name": "",
          "type": "uint256"
        }
      ],
      "payable": false,
      "stateMutability": "view",
      "type": "function"
    },
    {
      "constant": true,
      "inputs": [],
      "name": "owner",
      "outputs": [
        {
          "name": "",
          "type": "address"
        }
      ],
      "payable": false,
      "stateMutability": "view",
      "type": "function"
    },
    {
      "constant": true,
      "inputs": [],
      "name": "tokenCount",
      "outputs": [
        {
          "name": "",
          "type": "uint256"
        }
      ],
      "payable": false,
      "stateMutability": "view",
      "type": "function"
    },
    {
      "constant": true,
      "inputs": [],
      "name": "tokenValidCount",
      "outputs": [
        {
          "name": "",
          "type": "uint256"
        }
      ],
      "payable": false,
      "stateMutability": "view",
      "type": "function"
    },
    {
      "constant": true,
      "inputs": [
        {
          "name": "",
          "type": "address"
        }
      ],
      "name": "moderator",
      "outputs": [
        {
          "name": "",
          "type": "bool"
        }
      ],
      "payable": false,
      "stateMutability": "view",
      "type": "function"
    },
    {
      "inputs": [],
      "payable": false,
      "stateMutability": "nonpayable",
      "type": "constructor"
    },
    {
      "constant": false,
      "inputs": [
        {
          "name": "addr",
          "type": "address"
        }
      ],
      "name": "addModerator",
      "outputs": [],
      "payable": false,
      "stateMutability": "nonpayable",
      "type": "function"
    },
    {
      "constant": false,
      "inputs": [
        {
          "name": "addr",
          "type": "address"
        }
      ],
      "name": "removeModerator",
      "outputs": [],
      "payable": false,
      "stateMutability": "nonpayable",
      "type": "function"
    },
    {
      "constant": false,
      "inputs": [
        {
          "name": "name",
          "type": "bytes16"
        },
        {
          "name": "symbol",
          "type": "bytes16"
        },
        {
          "name": "addr",
          "type": "address"
        },
        {
          "name": "decimals",
          "type": "uint8"
        },
        {
          "name": "website",
          "type": "bytes32"
        },
        {
          "name": "email",
          "type": "bytes32"
        }
      ],
      "name": "addSetToken",
      "outputs": [],
      "payable": false,
      "stateMutability": "nonpayable",
      "type": "function"
    },
    {
      "constant": false,
      "inputs": [
        {
          "name": "addr",
          "type": "address"
        }
      ],
      "name": "disableToken",
      "outputs": [],
      "payable": false,
      "stateMutability": "nonpayable",
      "type": "function"
    },
    {
      "constant": false,
      "inputs": [
        {
          "name": "addr",
          "type": "address"
        }
      ],
      "name": "enableToken",
      "outputs": [],
      "payable": false,
      "stateMutability": "nonpayable",
      "type": "function"
    },
    {
      "constant": false,
      "inputs": [
        {
          "name": "name",
          "type": "bytes16"
        },
        {
          "name": "symbol",
          "type": "bytes16"
        },
        {
          "name": "addr",
          "type": "address"
        },
        {
          "name": "decimals",
          "type": "uint8"
        },
        {
          "name": "website",
          "type": "bytes32"
        },
        {
          "name": "email",
          "type": "bytes32"
        }
      ],
      "name": "test",
      "outputs": [],
      "payable": false,
      "stateMutability": "nonpayable",
      "type": "function"
    },
    {
      "constant": true,
      "inputs": [
        {
          "name": "addr",
          "type": "address"
        }
      ],
      "name": "getToken",
      "outputs": [
        {
          "name": "",
          "type": "bytes16"
        },
        {
          "name": "",
          "type": "bytes16"
        },
        {
          "name": "",
          "type": "address"
        },
        {
          "name": "",
          "type": "uint8"
        },
        {
          "name": "",
          "type": "bytes32"
        },
        {
          "name": "",
          "type": "bytes32"
        }
      ],
      "payable": false,
      "stateMutability": "view",
      "type": "function"
    },
    {
      "constant": true,
      "inputs": [
        {
          "name": "_owner",
          "type": "address"
        },
        {
          "name": "name",
          "type": "bool"
        },
        {
          "name": "website",
          "type": "bool"
        },
        {
          "name": "email",
          "type": "bool"
        }
      ],
      "name": "getAllBalance",
      "outputs": [
        {
          "name": "",
          "type": "bytes"
        }
      ],
      "payable": false,
      "stateMutability": "view",
      "type": "function"
    }
  ],
  "bytecode": "0x6060604052600080556000600155341561001857600080fd5b33600260006101000a81548173ffffffffffffffffffffffffffffffffffffffff021916908373ffffffffffffffffffffffffffffffffffffffff160217905550611899806100686000396000f3006060604052600436106100d0576000357c0100000000000000000000000000000000000000000000000000000000900463ffffffff16806303dc26e0146100d55780631f85eb3f1461016c57806323e27a641461025f57806359770438146102985780635b65bdc5146103965780636b941e1014610469578063869d785f146104b65780638da5cb5b146104ef5780639f181b5e14610544578063a593f0ba1461056d578063b1bed4f514610596578063b532e4cb146105e7578063c690908a14610620578063fae0cc1914610659575b600080fd5b34156100e057600080fd5b61016a60048080356fffffffffffffffffffffffffffffffff19169060200190919080356fffffffffffffffffffffffffffffffff191690602001909190803573ffffffffffffffffffffffffffffffffffffffff1690602001909190803560ff1690602001909190803560001916906020019091908035600019169060200190919050506106f0565b005b341561017757600080fd5b61018d60048080359060200190919050506106f8565b60405180886fffffffffffffffffffffffffffffffff19166fffffffffffffffffffffffffffffffff19168152602001876fffffffffffffffffffffffffffffffff19166fffffffffffffffffffffffffffffffff191681526020018673ffffffffffffffffffffffffffffffffffffffff1673ffffffffffffffffffffffffffffffffffffffff1681526020018560ff1660ff168152602001846000191660001916815260200183600019166000191681526020018215151515815260200197505050505050505060405180910390f35b341561026a57600080fd5b610296600480803573ffffffffffffffffffffffffffffffffffffffff169060200190919050506107ae565b005b34156102a357600080fd5b6102cf600480803573ffffffffffffffffffffffffffffffffffffffff16906020019091905050610970565b60405180876fffffffffffffffffffffffffffffffff19166fffffffffffffffffffffffffffffffff19168152602001866fffffffffffffffffffffffffffffffff19166fffffffffffffffffffffffffffffffff191681526020018573ffffffffffffffffffffffffffffffffffffffff1673ffffffffffffffffffffffffffffffffffffffff1681526020018460ff1660ff16815260200183600019166000191681526020018260001916600019168152602001965050505050505060405180910390f35b34156103a157600080fd5b6103ee600480803573ffffffffffffffffffffffffffffffffffffffff16906020019091908035151590602001909190803515159060200190919080351515906020019091905050610b61565b6040518080602001828103825283818151815260200191508051906020019080838360005b8381101561042e578082015181840152602081019050610413565b50505050905090810190601f16801561045b5780820380516001836020036101000a031916815260200191505b509250505060405180910390f35b341561047457600080fd5b6104a0600480803573ffffffffffffffffffffffffffffffffffffffff169060200190919050506110c7565b6040518082815260200191505060405180910390f35b34156104c157600080fd5b6104ed600480803573ffffffffffffffffffffffffffffffffffffffff169060200190919050506110df565b005b34156104fa57600080fd5b610502611196565b604051808273ffffffffffffffffffffffffffffffffffffffff1673ffffffffffffffffffffffffffffffffffffffff16815260200191505060405180910390f35b341561054f57600080fd5b6105576111bc565b6040518082815260200191505060405180910390f35b341561057857600080fd5b6105806111c2565b6040518082815260200191505060405180910390f35b34156105a157600080fd5b6105cd600480803573ffffffffffffffffffffffffffffffffffffffff169060200190919050506111c8565b604051808215151515815260200191505060405180910390f35b34156105f257600080fd5b61061e600480803573ffffffffffffffffffffffffffffffffffffffff169060200190919050506111e8565b005b341561062b57600080fd5b610657600480803573ffffffffffffffffffffffffffffffffffffffff1690602001909190505061129f565b005b341561066457600080fd5b6106ee60048080356fffffffffffffffffffffffffffffffff19169060200190919080356fffffffffffffffffffffffffffffffff191690602001909190803573ffffffffffffffffffffffffffffffffffffffff1690602001909190803560ff169060200190919080356000191690602001909190803560001916906020019091905050611460565b005b505050505050565b60036020528060005260406000206000915090508060000160009054906101000a900470010000000000000000000000000000000002908060000160109054906101000a900470010000000000000000000000000000000002908060010160009054906101000a900473ffffffffffffffffffffffffffffffffffffffff16908060010160149054906101000a900460ff16908060020154908060030154908060040160009054906101000a900460ff16905087565b60003373ffffffffffffffffffffffffffffffffffffffff16600260009054906101000a900473ffffffffffffffffffffffffffffffffffffffff1673ffffffffffffffffffffffffffffffffffffffff16148061085c575060011515600460003373ffffffffffffffffffffffffffffffffffffffff1673ffffffffffffffffffffffffffffffffffffffff16815260200190815260200160002060009054906101000a900460ff161515145b151561086757600080fd5b8160008173ffffffffffffffffffffffffffffffffffffffff161415151561088e57600080fd5b60036000600560008673ffffffffffffffffffffffffffffffffffffffff1673ffffffffffffffffffffffffffffffffffffffff16815260200190815260200160002054815260200190815260200160002091508273ffffffffffffffffffffffffffffffffffffffff168260010160009054906101000a900473ffffffffffffffffffffffffffffffffffffffff1673ffffffffffffffffffffffffffffffffffffffff16141561096b5760008260040160006101000a81548160ff021916908315150217905550600160008154809291906001900391905055505b505050565b6000806000806000806109816117d4565b60036000600560008b73ffffffffffffffffffffffffffffffffffffffff1673ffffffffffffffffffffffffffffffffffffffff16815260200190815260200160002054815260200190815260200160002060e060405190810160405290816000820160009054906101000a9004700100000000000000000000000000000000026fffffffffffffffffffffffffffffffff19166fffffffffffffffffffffffffffffffff191681526020016000820160109054906101000a9004700100000000000000000000000000000000026fffffffffffffffffffffffffffffffff19166fffffffffffffffffffffffffffffffff191681526020016001820160009054906101000a900473ffffffffffffffffffffffffffffffffffffffff1673ffffffffffffffffffffffffffffffffffffffff1673ffffffffffffffffffffffffffffffffffffffff1681526020016001820160149054906101000a900460ff1660ff1660ff1681526020016002820154600019166000191681526020016003820154600019166000191681526020016004820160009054906101000a900460ff1615151515815250509050806000015181602001518260400151836060015184608001518560a001519650965096509650965096505091939550919395565b610b69611859565b600080610b746117d4565b610b7c611859565b60008060209550600386019550600194505b60005485111515610d4b576003600086815260200190815260200160002060e060405190810160405290816000820160009054906101000a9004700100000000000000000000000000000000026fffffffffffffffffffffffffffffffff19166fffffffffffffffffffffffffffffffff191681526020016000820160109054906101000a9004700100000000000000000000000000000000026fffffffffffffffffffffffffffffffff19166fffffffffffffffffffffffffffffffff191681526020016001820160009054906101000a900473ffffffffffffffffffffffffffffffffffffffff1673ffffffffffffffffffffffffffffffffffffffff1673ffffffffffffffffffffffffffffffffffffffff1681526020016001820160149054906101000a900460ff1660ff1660ff1681526020016002820154600019166000191681526020016003820154600019166000191681526020016004820160009054906101000a900460ff16151515158152505093508360c0015115610d3e578915610d1d576010860195505b8815610d2a576020860195505b8715610d37576020860195505b604c860195505b8480600101955050610b8e565b85604051805910610d595750595b9080825280601f01601f19166020018201604052509250859150610d808260015485611772565b602082039150610d91828b8561177c565b600182039150610da2828a8561177c565b600182039150610db382898561177c565b600182039150600194505b600054851115156110b9576003600086815260200190815260200160002060e060405190810160405290816000820160009054906101000a9004700100000000000000000000000000000000026fffffffffffffffffffffffffffffffff19166fffffffffffffffffffffffffffffffff191681526020016000820160109054906101000a9004700100000000000000000000000000000000026fffffffffffffffffffffffffffffffff19166fffffffffffffffffffffffffffffffff191681526020016001820160009054906101000a900473ffffffffffffffffffffffffffffffffffffffff1673ffffffffffffffffffffffffffffffffffffffff1673ffffffffffffffffffffffffffffffffffffffff1681526020016001820160149054906101000a900460ff1660ff1660ff1681526020016002820154600019166000191681526020016003820154600019166000191681526020016004820160009054906101000a900460ff1615151515815250509350836040015190508360c00151156110ac57610f56828560200151856117a0565b601082039150610f6b828560400151856117b5565b601482039150610f8382856060015160ff1685611772565b600882039150611051828273ffffffffffffffffffffffffffffffffffffffff166370a082318e6000604051602001526040518263ffffffff167c0100000000000000000000000000000000000000000000000000000000028152600401808273ffffffffffffffffffffffffffffffffffffffff1673ffffffffffffffffffffffffffffffffffffffff168152602001915050602060405180830381600087803b151561103057600080fd5b6102c65a03f1151561104157600080fd5b5050506040518051905085611772565b60208203915089156110735761106c828560000151856117a0565b6010820391505b881561108f57611088828560800151856117bf565b6020820391505b87156110ab576110a4828560a00151856117bf565b6020820391505b5b8480600101955050610dbe565b505050505050949350505050565b60056020528060005260406000206000915090505481565b3373ffffffffffffffffffffffffffffffffffffffff16600260009054906101000a900473ffffffffffffffffffffffffffffffffffffffff1673ffffffffffffffffffffffffffffffffffffffff1614151561113b57600080fd5b6000600460008373ffffffffffffffffffffffffffffffffffffffff1673ffffffffffffffffffffffffffffffffffffffff16815260200190815260200160002060006101000a81548160ff02191690831515021790555050565b600260009054906101000a900473ffffffffffffffffffffffffffffffffffffffff1681565b60005481565b60015481565b60046020528060005260406000206000915054906101000a900460ff1681565b3373ffffffffffffffffffffffffffffffffffffffff16600260009054906101000a900473ffffffffffffffffffffffffffffffffffffffff1673ffffffffffffffffffffffffffffffffffffffff1614151561124457600080fd5b6001600460008373ffffffffffffffffffffffffffffffffffffffff1673ffffffffffffffffffffffffffffffffffffffff16815260200190815260200160002060006101000a81548160ff02191690831515021790555050565b60003373ffffffffffffffffffffffffffffffffffffffff16600260009054906101000a900473ffffffffffffffffffffffffffffffffffffffff1673ffffffffffffffffffffffffffffffffffffffff16148061134d575060011515600460003373ffffffffffffffffffffffffffffffffffffffff1673ffffffffffffffffffffffffffffffffffffffff16815260200190815260200160002060009054906101000a900460ff161515145b151561135857600080fd5b8160008173ffffffffffffffffffffffffffffffffffffffff161415151561137f57600080fd5b60036000600560008673ffffffffffffffffffffffffffffffffffffffff1673ffffffffffffffffffffffffffffffffffffffff16815260200190815260200160002054815260200190815260200160002091508273ffffffffffffffffffffffffffffffffffffffff168260010160009054906101000a900473ffffffffffffffffffffffffffffffffffffffff1673ffffffffffffffffffffffffffffffffffffffff16141561145b5760008260040160006101000a81548160ff0219169083151502179055506001600081548092919060010191905055505b505050565b60003373ffffffffffffffffffffffffffffffffffffffff16600260009054906101000a900473ffffffffffffffffffffffffffffffffffffffff1673ffffffffffffffffffffffffffffffffffffffff16148061150e575060011515600460003373ffffffffffffffffffffffffffffffffffffffff1673ffffffffffffffffffffffffffffffffffffffff16815260200190815260200160002060009054906101000a900460ff161515145b151561151957600080fd5b8460008173ffffffffffffffffffffffffffffffffffffffff161415151561154057600080fd5b60036000600560008973ffffffffffffffffffffffffffffffffffffffff1673ffffffffffffffffffffffffffffffffffffffff168152602001908152602001600020548152602001908152602001600020915060008260010160009054906101000a900473ffffffffffffffffffffffffffffffffffffffff1673ffffffffffffffffffffffffffffffffffffffff16141561167457600080815480929190600101919050555060016000815480929190600101919050555060036000805481526020019081526020016000209150600054600560008873ffffffffffffffffffffffffffffffffffffffff1673ffffffffffffffffffffffffffffffffffffffff1681526020019081526020016000208190555060018260040160006101000a81548160ff0219169083151502179055505b878260000160006101000a8154816fffffffffffffffffffffffffffffffff021916908370010000000000000000000000000000000090040217905550868260000160106101000a8154816fffffffffffffffffffffffffffffffff021916908370010000000000000000000000000000000090040217905550858260010160006101000a81548173ffffffffffffffffffffffffffffffffffffffff021916908373ffffffffffffffffffffffffffffffffffffffff160217905550848260010160146101000a81548160ff021916908360ff16021790555083826002018160001916905550828260030181600019169055505050505050505050565b8183820152505050565b600080151583151514611790576001611793565b60005b9050808483015250505050565b81838201526010820160108483010152505050565b8183820152505050565b81838201526020820160208483010152505050565b60e06040519081016040528060006fffffffffffffffffffffffffffffffff1916815260200160006fffffffffffffffffffffffffffffffff19168152602001600073ffffffffffffffffffffffffffffffffffffffff168152602001600060ff16815260200160008019168152602001600080191681526020016000151581525090565b6020604051908101604052806000815250905600a165627a7a723058201270244d7ff21b526292cd96caf4912564ae27d05d39f9ddab5834596e9436ba0029",
  "source": "pragma solidity ^0.4.0;\nimport \"./Seriality/Seriality.sol\";\nimport \"./BasicToken.sol\";\n\ncontract PublicTokens is Seriality{\n\tuint public tokenCount = 0; //total count of all added tokens\n\tuint public tokenValidCount = 0; //count of all valid tokens isValid!=false\n\taddress public owner;\n    struct Token {\n        bytes16 name; // Name of the token\n        bytes16 symbol;  // Symbol of the token\n        address addr; // Address of the token contract\n        uint8 decimals; // decimals of the token\n        bytes32 website;   // website of the token\n        bytes32 email; // support email of the token\n        bool isValid; //whether the token is valid or not\n    }\n    mapping(uint => Token) public pubTokens;\n    mapping(address => bool) public moderator;\n    mapping(address => uint) public idMap;\n    modifier owner_only() {\n        require(owner == msg.sender);\n        _;\n    }\n    modifier only_mod() {\n        require(owner == msg.sender || moderator[msg.sender] == true);\n        _;\n    }\n    modifier no_null(address addr) {\n        require(addr != 0x0);\n        _;\n    }\n    function PublicTokens () public {\n    \towner = msg.sender;\n    }\n    function addModerator(address addr) public owner_only {\n    \tmoderator[addr] = true;\n    }\n    function removeModerator(address addr) public owner_only {\n    \tmoderator[addr] = false;\n    }\n    function addSetToken(\n    \tbytes16 name, \n    \tbytes16 symbol, \n    \taddress addr, \n    \tuint8 decimals, \n    \tbytes32 website, \n    \tbytes32 email) public only_mod no_null(addr) {\n    \tToken storage token = pubTokens[idMap[addr]];\n    \tif(token.addr == 0x0) {\n    \t\ttokenCount++;\n        \ttokenValidCount++;\n    \t\ttoken = pubTokens[tokenCount];\n    \t\tidMap[addr] = tokenCount;\n    \t\ttoken.isValid = true;\n    \t}\n        token.name = name;\n        token.symbol = symbol;\n        token.addr = addr;\n        token.decimals = decimals;\n        token.website = website;\n        token.email = email;\n    }\n    function disableToken(address addr) public only_mod no_null(addr) {\n    \tToken storage token = pubTokens[idMap[addr]];\n    \tif(token.addr == addr) {\n    \t\ttoken.isValid = false;\n    \t\ttokenValidCount--;\n    \t}\n    }\n    function enableToken(address addr) public only_mod no_null(addr) {\n    \tToken storage token = pubTokens[idMap[addr]];\n    \tif(token.addr == addr) {\n    \t\ttoken.isValid = false;\n    \t\ttokenValidCount++;\n    \t}\n    }\n    function test(bytes16 name, \n    \tbytes16 symbol, \n    \taddress addr, \n    \tuint8 decimals, \n    \tbytes32 website, \n    \tbytes32 email) public {\n    \t\n    }\n    function getToken(address addr) public view returns (\n    \tbytes16, \n    \tbytes16, \n    \taddress, \n    \tuint8, \n    \tbytes32, \n    \tbytes32) {\n    \tToken memory token =  pubTokens[idMap[addr]];\n        return (\n        \ttoken.name,\n        \ttoken.symbol,\n        \ttoken.addr,\n        \ttoken.decimals,\n        \ttoken.website,\n        \ttoken.email);\n    }\n    function getAllBalance(address _owner, bool name, bool website, bool email) public view returns (bytes) {\n    \tuint bufferSize = 32; //assign 32 bytes to set the total number of tokens\n    \tbufferSize += 3; //set name, website, email\n    \tfor(uint i=1; i<=tokenCount; i++){\n    \t\tToken memory token = pubTokens[i];\n    \t\tif(token.isValid){\n    \t\t\tif(name) bufferSize+=16;\n    \t\t\tif(website) bufferSize+=32;\n    \t\t\tif(email) bufferSize+=32;\n    \t\t\tbufferSize+= 76; // address (20) + symbol(16) + balance(32) + decimals(8)\n    \t\t}\n    \t}\n    \tbytes memory result = new bytes(bufferSize);\n    \tuint offset = bufferSize;\n    \t//serialize\n    \tuintToBytes(offset, tokenValidCount, result); offset -= 32;\n    \tboolToBytes(offset, name, result); offset -= 1;\n    \tboolToBytes(offset, website, result); offset -= 1;\n    \tboolToBytes(offset, email, result); offset -= 1;\n    \tfor(i=1; i<=tokenCount; i++){\n    \t\ttoken = pubTokens[i];\n    \t\tBasicToken basicToken = BasicToken(token.addr);\n    \t\tif(token.isValid){\n    \t\t\tbytes16ToBytes(offset, token.symbol, result); offset -= 16;\n    \t\t\taddressToBytes(offset, token.addr, result); offset -= 20;\n    \t\t\tuintToBytes(offset, token.decimals, result); offset -= 8;\n    \t\t\tuintToBytes(offset, basicToken.balanceOf(_owner), result); offset -= 32;\n    \t\t\tif(name){\n    \t\t\t\tbytes16ToBytes(offset, token.name, result); offset -= 16;\n    \t\t\t}\n    \t\t\tif(website) {\n    \t\t\t\tbytes32ToBytes(offset, token.website, result); offset -= 32;\n    \t\t\t}\n    \t\t\tif(email) {\n    \t\t\t\tbytes32ToBytes(offset, token.email, result); offset -= 32;\n    \t\t\t}\n    \t\t}\n    \t}\n    }\n}",
  "sourcePath": "/home/kvhnuke/GitHub/utility-contracts/contracts/PublicTokens.sol",
  "compiler": {
    "name": "solc",
    "version": "0.4.19+commit.c4cbbb05.Emscripten.clang"
  },
  "schemaVersion": "2.0.0",
  "updatedAt": "2018-03-19T21:17:17.507Z"
}