{
  "contractName": "TokenBalances",
  "abi": [
    {
      "inputs": [
        {
          "name": "tokenStorage",
          "type": "address"
        }
      ],
      "payable": false,
      "stateMutability": "nonpayable",
      "type": "constructor"
    },
    {
      "constant": true,
      "inputs": [],
      "name": "getTokenStorage",
      "outputs": [
        {
          "name": "",
          "type": "address"
        }
      ],
      "payable": false,
      "stateMutability": "view",
      "type": "function"
    },
    {
      "constant": true,
      "inputs": [
        {
          "name": "tokenAddr",
          "type": "address"
        },
        {
          "name": "addr",
          "type": "address"
        }
      ],
      "name": "getTokenBalance",
      "outputs": [
        {
          "name": "bal",
          "type": "uint256"
        }
      ],
      "payable": false,
      "stateMutability": "view",
      "type": "function"
    },
    {
      "constant": true,
      "inputs": [
        {
          "name": "_owner",
          "type": "address"
        },
        {
          "name": "name",
          "type": "bool"
        },
        {
          "name": "website",
          "type": "bool"
        },
        {
          "name": "email",
          "type": "bool"
        },
        {
          "name": "_count",
          "type": "uint256"
        }
      ],
      "name": "getAllBalance",
      "outputs": [
        {
          "name": "",
          "type": "bytes"
        }
      ],
      "payable": false,
      "stateMutability": "view",
      "type": "function"
    }
  ],
  "bytecode": "0x608060405234801561001057600080fd5b50604051602080610a0983398101806040528101908080519060200190929190505050806000806101000a81548173ffffffffffffffffffffffffffffffffffffffff021916908373ffffffffffffffffffffffffffffffffffffffff16021790555050610986806100836000396000f300608060405260043610610057576000357c0100000000000000000000000000000000000000000000000000000000900463ffffffff16806380f4ae5c1461005c578063c489744b14610146578063f6333d91146101bd575b600080fd5b34801561006857600080fd5b506100cb600480360381019080803573ffffffffffffffffffffffffffffffffffffffff16906020019092919080351515906020019092919080351515906020019092919080351515906020019092919080359060200190929190505050610214565b6040518080602001828103825283818151815260200191508051906020019080838360005b8381101561010b5780820151818401526020810190506100f0565b50505050905090810190601f1680156101385780820380516001836020036101000a031916815260200191505b509250505060405180910390f35b34801561015257600080fd5b506101a7600480360381019080803573ffffffffffffffffffffffffffffffffffffffff169060200190929190803573ffffffffffffffffffffffffffffffffffffffff1690602001909291905050506105b0565b6040518082815260200191505060405180910390f35b3480156101c957600080fd5b506101d261062f565b604051808273ffffffffffffffffffffffffffffffffffffffff1673ffffffffffffffffffffffffffffffffffffffff16815260200191505060405180910390f35b6060600080606060008060006102286108d5565b606060008e975060008b14156102ff576000809054906101000a900473ffffffffffffffffffffffffffffffffffffffff1673ffffffffffffffffffffffffffffffffffffffff16639f181b5e6040518163ffffffff167c0100000000000000000000000000000000000000000000000000000000028152600401602060405180830381600087803b1580156102bd57600080fd5b505af11580156102d1573d6000803e3d6000fd5b505050506040513d60208110156102e757600080fd5b81019080805190602001909291905050509850610303565b8a98505b600189016040519080825280602002602001820160405280156103355781602001602082028038833980820191505090505b5096506021955060038601955060009450600193505b888411151561040e5761035d84610658565b92508260c0015180156103795750610378836040015161083d565b5b156103dc576001878581518110151561038e57fe5b906020019060200201901515908115158152505084806001019550508d156103b7576010860195505b8c156103c4576020860195505b8b156103d1576020860195505b604586019550610401565b600087858151811015156103ec57fe5b90602001906020020190151590811515815250505b838060010194505061034b565b856040519080825280601f01601f1916602001820160405280156104415781602001602082028038833980820191505090505b50915085905061045381600184610856565b60018103905061046481868461087a565b602081039050610475818f84610856565b600181039050610486818e84610856565b600181039050610497818d84610856565b600181039050600193505b888411151561059b5786848151811015156104b957fe5b9060200190602002015115156104ce5761058e565b6104d784610658565b92506104e881846020015184610884565b6010810390506104fd818460400151846108a9565b60148103905061051581846060015160ff168461087a565b6001810390506105338161052d85604001518b6105b0565b8461087a565b6020810390508d156105555761054e81846000015184610884565b6010810390505b8c156105715761056a818460800151846108b3565b6020810390505b8b1561058d57610586818460a00151846108b3565b6020810390505b5b83806001019450506104a2565b81995050505050505050505095945050505050565b60008060405180807f62616c616e63654f662861646472657373290000000000000000000000000000815250601201905060405180910390209050604051818152836004820152602081602483600089620249f0f180151561061157600093505b600081111561061f57815193505b6020820160405250505092915050565b60008060009054906101000a900473ffffffffffffffffffffffffffffffffffffffff16905090565b6106606108d5565b6000809054906101000a900473ffffffffffffffffffffffffffffffffffffffff1673ffffffffffffffffffffffffffffffffffffffff16631f85eb3f836040518263ffffffff167c01000000000000000000000000000000000000000000000000000000000281526004018082815260200191505060e060405180830381600087803b1580156106f057600080fd5b505af1158015610704573d6000803e3d6000fd5b505050506040513d60e081101561071a57600080fd5b81019080805190602001909291908051906020019092919080519060200190929190805190602001909291908051906020019092919080519060200190929190805190602001909291905050508760000188602001896040018a6060018b6080018c60a0018d60c00187151515158152508760001916600019168152508760001916600019168152508760ff1660ff168152508773ffffffffffffffffffffffffffffffffffffffff1673ffffffffffffffffffffffffffffffffffffffff16815250876fffffffffffffffffffffffffffffffff19166fffffffffffffffffffffffffffffffff1916815250876fffffffffffffffffffffffffffffffff19166fffffffffffffffffffffffffffffffff191681525050505050505050919050565b600080823b905060008163ffffffff1611915050919050565b60008015158315151461086a57600161086d565b60005b9050808483015250505050565b8183820152505050565b600060105b83821a826010018685010153600182019150808210610889575050505050565b8183820152505050565b600060205b83821a8286850101536001820191508082106108b8575050505050565b60e06040519081016040528060006fffffffffffffffffffffffffffffffff1916815260200160006fffffffffffffffffffffffffffffffff19168152602001600073ffffffffffffffffffffffffffffffffffffffff168152602001600060ff168152602001600080191681526020016000801916815260200160001515815250905600a165627a7a72305820246e6deb344bb2a2c8ec4b1164014b00d7f64a662087752c6a9c51e3b60d27bd0029",
  "source": "pragma solidity ^0.4.24;\nimport \"./Seriality/Seriality.sol\";\nimport \"./PublicTokens.sol\";\nimport \"./DummyToken.sol\";\ncontract TokenBalances is Seriality{\n    struct Token {\n        bytes16 name; // Name of the token\n        bytes16 symbol;  // Symbol of the token\n        address addr; // Address of the token contract\n        uint8 decimals; // decimals of the token\n        bytes32 website;   // website of the token\n        bytes32 email; // support email of the token\n        bool isValid; //whether the token is valid or not\n    }\n    PublicTokens pubT;\n    constructor(address tokenStorage) public {\n        pubT = PublicTokens(tokenStorage);\n    }\n    function getTokenStorage() public view returns (address){\n        return pubT;\n    }\n    function isContract(address addr) internal view returns (bool) {\n        uint32 size;\n        assembly {\n            size := extcodesize(addr)\n        }\n        return size > 0;\n    }\n    function getToken(uint id) internal view returns (Token token) {\n        (token.name, token.symbol, token.addr, token.decimals, token.website, token.email, token.isValid) = pubT.pubTokens(id);\n    }\n    function getTokenBalance(address tokenAddr, address addr) public view returns (uint bal) {\n        bytes4 sig = bytes4(keccak256(\"balanceOf(address)\"));\n        assembly {\n            // move pointer to free memory spot\n            let ptr := mload(0x40)\n            // put function sig at memory spot\n            mstore(ptr,sig)\n            // append argument after function sig\n            mstore(add(ptr,0x04), addr)\n\n            let result := call(\n              150000, // gas limit\n              tokenAddr,  // to addr. append var to _slot to access storage variable\n              0, // not transfer any ether\n              ptr, // Inputs are stored at location ptr\n              0x24, // Inputs are 36 bytes long\n              ptr,  //Store output over input\n              0x20) //Outputs are 32 bytes long\n\n             if iszero(result) {\n                 bal := 0 // return 0 on error and 0 balance\n             }\n             if gt(result, 0) {\n                 bal := mload(ptr) // Assign output to answer var\n             }\n            mstore(0x40,add(ptr,0x20)) // Set storage pointer to new space\n        }\n    }\n    function getAllBalance(address _owner, bool name, bool website, bool email, uint _count) public view returns (bytes) {\n        uint count;\n        address tOwner = _owner;\n        if(_count == 0) count = pubT.tokenCount();\n\t\telse count = _count;\n        bool[] memory validTokens = new bool[](count+1);\n        uint bufferSize = 33; //assign 32 bytes to set the total number of tokens + define start\n        bufferSize += 3; //set name, website, email\n        uint countValidTokens = 0;\n        for(uint i = 1; i <= count; i++){\n            Token memory token = getToken(i);\n            if(token.isValid && isContract(token.addr)){\n                validTokens[i] = true;\n                countValidTokens++;\n                if(name) bufferSize += 16;\n                if(website) bufferSize += 32;\n                if(email) bufferSize += 32;\n                bufferSize += 69; // address (20) + symbol(16) + balance(32) + decimals(1)\n    \t\t} else {\n                validTokens[i] = false;\n            }\n        }\n        bytes memory result = new bytes(bufferSize);\n        uint offset = bufferSize;\n    \t//serialize\n        boolToBytes(offset, true, result); \n        offset -= 1;\n        uintToBytes(offset, countValidTokens, result); \n        offset -= 32;\n        boolToBytes(offset, name, result); \n        offset -= 1;\n        boolToBytes(offset, website, result); \n        offset -= 1;\n        boolToBytes(offset, email, result); \n        offset -= 1;\n        for(i = 1; i <= count; i++){\n            if(!validTokens[i]) continue;\n            token = getToken(i);\n            bytes16ToBytesR(offset, token.symbol, result); \n            offset -= 16;\n            addressToBytes(offset, token.addr, result); \n            offset -= 20;\n            uintToBytes(offset, token.decimals, result); \n            offset -= 1;\n            uintToBytes(offset, getTokenBalance(token.addr, tOwner), result); \n            offset -= 32;\n            if(name){\n                bytes16ToBytesR(offset, token.name, result); \n                offset -= 16;\n    \t\t}\n            if(website) {\n                bytes32ToBytesR(offset, token.website, result); \n                offset -= 32;\n    \t\t}\n            if(email) {\n                bytes32ToBytesR(offset, token.email, result); \n                offset -= 32;\n    \t\t}\n        }\n        return result;\n    }\n}",
  "sourcePath": "/home/kvhnuke/GitHub/utility-contracts/contracts/token-balances/TokenBalances.sol",
  "compiler": {
    "name": "solc",
    "version": "0.4.25+commit.59dbf8f1.Emscripten.clang"
  },
  "schemaVersion": "2.0.2",
  "updatedAt": "2019-01-15T06:18:11.376Z"
}