{
  "contractName": "TokenBalances",
  "abi": [
    {
      "inputs": [
        {
          "internalType": "address",
          "name": "tokenStorage",
          "type": "address"
        }
      ],
      "stateMutability": "nonpayable",
      "type": "constructor"
    },
    {
      "inputs": [
        {
          "internalType": "uint256",
          "name": "_offst",
          "type": "uint256"
        },
        {
          "internalType": "address",
          "name": "_input",
          "type": "address"
        },
        {
          "internalType": "bytes",
          "name": "result",
          "type": "bytes"
        }
      ],
      "name": "copyAddress",
      "outputs": [],
      "stateMutability": "pure",
      "type": "function"
    },
    {
      "inputs": [
        {
          "internalType": "uint256",
          "name": "_offst",
          "type": "uint256"
        },
        {
          "internalType": "bool",
          "name": "_input",
          "type": "bool"
        },
        {
          "internalType": "bytes",
          "name": "result",
          "type": "bytes"
        }
      ],
      "name": "copyBool",
      "outputs": [],
      "stateMutability": "pure",
      "type": "function"
    },
    {
      "inputs": [
        {
          "internalType": "uint256",
          "name": "_offst",
          "type": "uint256"
        },
        {
          "internalType": "bytes16",
          "name": "_input",
          "type": "bytes16"
        },
        {
          "internalType": "bytes",
          "name": "result",
          "type": "bytes"
        }
      ],
      "name": "copyBytes16",
      "outputs": [],
      "stateMutability": "pure",
      "type": "function"
    },
    {
      "inputs": [
        {
          "internalType": "uint256",
          "name": "_offst",
          "type": "uint256"
        },
        {
          "internalType": "bytes32",
          "name": "_input",
          "type": "bytes32"
        },
        {
          "internalType": "bytes",
          "name": "result",
          "type": "bytes"
        }
      ],
      "name": "copyBytes32",
      "outputs": [],
      "stateMutability": "pure",
      "type": "function"
    },
    {
      "inputs": [
        {
          "internalType": "uint256",
          "name": "_offst",
          "type": "uint256"
        },
        {
          "internalType": "uint256",
          "name": "_input",
          "type": "uint256"
        },
        {
          "internalType": "bytes",
          "name": "result",
          "type": "bytes"
        }
      ],
      "name": "copyUint",
      "outputs": [],
      "stateMutability": "pure",
      "type": "function"
    },
    {
      "inputs": [
        {
          "internalType": "uint256",
          "name": "_offst",
          "type": "uint256"
        },
        {
          "internalType": "uint8",
          "name": "_input",
          "type": "uint8"
        },
        {
          "internalType": "bytes",
          "name": "result",
          "type": "bytes"
        }
      ],
      "name": "copyUint8",
      "outputs": [],
      "stateMutability": "pure",
      "type": "function"
    },
    {
      "inputs": [
        {
          "internalType": "address",
          "name": "tokenAddr",
          "type": "address"
        },
        {
          "internalType": "address",
          "name": "addr",
          "type": "address"
        }
      ],
      "name": "getTokenBalance",
      "outputs": [
        {
          "internalType": "uint256",
          "name": "bal",
          "type": "uint256"
        }
      ],
      "stateMutability": "nonpayable",
      "type": "function"
    },
    {
      "inputs": [
        {
          "internalType": "address",
          "name": "addr",
          "type": "address"
        }
      ],
      "name": "isContract",
      "outputs": [
        {
          "internalType": "bool",
          "name": "",
          "type": "bool"
        }
      ],
      "stateMutability": "view",
      "type": "function"
    },
    {
      "inputs": [
        {
          "internalType": "bytes",
          "name": "src",
          "type": "bytes"
        },
        {
          "internalType": "uint256",
          "name": "_offst",
          "type": "uint256"
        },
        {
          "internalType": "uint256",
          "name": "len",
          "type": "uint256"
        },
        {
          "internalType": "bytes",
          "name": "result",
          "type": "bytes"
        }
      ],
      "name": "memcpy",
      "outputs": [],
      "stateMutability": "pure",
      "type": "function"
    },
    {
      "inputs": [],
      "name": "getTokenStorage",
      "outputs": [
        {
          "internalType": "address",
          "name": "",
          "type": "address"
        }
      ],
      "stateMutability": "view",
      "type": "function"
    },
    {
      "inputs": [
        {
          "internalType": "address",
          "name": "_owner",
          "type": "address"
        },
        {
          "internalType": "bool",
          "name": "name",
          "type": "bool"
        },
        {
          "internalType": "bool",
          "name": "website",
          "type": "bool"
        },
        {
          "internalType": "bool",
          "name": "email",
          "type": "bool"
        }
      ],
      "name": "getAllBalance",
      "outputs": [
        {
          "internalType": "bytes",
          "name": "",
          "type": "bytes"
        }
      ],
      "stateMutability": "nonpayable",
      "type": "function"
    }
  ],
  "bytecode": "0x608060405234801561001057600080fd5b5060405161119d38038061119d8339818101604052602081101561003357600080fd5b8101908080519060200190929190505050806000806101000a81548173ffffffffffffffffffffffffffffffffffffffff021916908373ffffffffffffffffffffffffffffffffffffffff16021790555050611109806100946000396000f3fe608060405234801561001057600080fd5b50600436106100a95760003560e01c8063822de36d11610071578063822de36d14610508578063b644331d146105d9578063c489744b146106a8578063d68eb36c14610720578063f404b70614610802578063f6333d91146108d1576100a9565b806316279055146100ae5780631892154b1461010a57806320d2da85146101ef578063407c280d146102c15780635b65bdc514610427575b600080fd5b6100f0600480360360208110156100c457600080fd5b81019080803573ffffffffffffffffffffffffffffffffffffffff16906020019092919050505061091b565b604051808215151515815260200191505060405180910390f35b6101ed6004803603606081101561012057600080fd5b8101908080359060200190929190803573ffffffffffffffffffffffffffffffffffffffff1690602001909291908035906020019064010000000081111561016757600080fd5b82018360208201111561017957600080fd5b8035906020019184600183028401116401000000008311171561019b57600080fd5b91908080601f016020809104026020016040519081016040528093929190818152602001838380828437600081840152601f19601f820116905080830192505050505050509192919290505050610934565b005b6102bf6004803603606081101561020557600080fd5b8101908080359060200190929190803560ff1690602001909291908035906020019064010000000081111561023957600080fd5b82018360208201111561024b57600080fd5b8035906020019184600183028401116401000000008311171561026d57600080fd5b91908080601f016020809104026020016040519081016040528093929190818152602001838380828437600081840152601f19601f8201169050808301925050505050505091929192905050506109a6565b005b610425600480360360808110156102d757600080fd5b81019080803590602001906401000000008111156102f457600080fd5b82018360208201111561030657600080fd5b8035906020019184600183028401116401000000008311171561032857600080fd5b91908080601f016020809104026020016040519081016040528093929190818152602001838380828437600081840152601f19601f82011690508083019250505050505050919291929080359060200190929190803590602001909291908035906020019064010000000081111561039f57600080fd5b8201836020820111156103b157600080fd5b803590602001918460018302840111640100000000831117156103d357600080fd5b91908080601f016020809104026020016040519081016040528093929190818152602001838380828437600081840152601f19601f8201169050808301925050505050505091929192905050506109b0565b005b61048d6004803603608081101561043d57600080fd5b81019080803573ffffffffffffffffffffffffffffffffffffffff169060200190929190803515159060200190929190803515159060200190929190803515159060200190929190505050610a18565b6040518080602001828103825283818151815260200191508051906020019080838360005b838110156104cd5780820151818401526020810190506104b2565b50505050905090810190601f1680156104fa5780820380516001836020036101000a031916815260200191505b509250505060405180910390f35b6105d76004803603606081101561051e57600080fd5b81019080803590602001909291908035151590602001909291908035906020019064010000000081111561055157600080fd5b82018360208201111561056357600080fd5b8035906020019184600183028401116401000000008311171561058557600080fd5b91908080601f016020809104026020016040519081016040528093929190818152602001838380828437600081840152601f19601f820116905080830192505050505050509192919290505050610c91565b005b6106a6600480360360608110156105ef57600080fd5b8101908080359060200190929190803590602001909291908035906020019064010000000081111561062057600080fd5b82018360208201111561063257600080fd5b8035906020019184600183028401116401000000008311171561065457600080fd5b91908080601f016020809104026020016040519081016040528093929190818152602001838380828437600081840152601f19601f820116905080830192505050505050509192919290505050610cb5565b005b61070a600480360360408110156106be57600080fd5b81019080803573ffffffffffffffffffffffffffffffffffffffff169060200190929190803573ffffffffffffffffffffffffffffffffffffffff169060200190929190505050610d04565b6040518082815260200191505060405180910390f35b6108006004803603606081101561073657600080fd5b810190808035906020019092919080356fffffffffffffffffffffffffffffffff191690602001909291908035906020019064010000000081111561077a57600080fd5b82018360208201111561078c57600080fd5b803590602001918460018302840111640100000000831117156107ae57600080fd5b91908080601f016020809104026020016040519081016040528093929190818152602001838380828437600081840152601f19601f820116905080830192505050505050509192919290505050610d81565b005b6108cf6004803603606081101561081857600080fd5b8101908080359060200190929190803590602001909291908035906020019064010000000081111561084957600080fd5b82018360208201111561085b57600080fd5b8035906020019184600183028401116401000000008311171561087d57600080fd5b91908080601f016020809104026020016040519081016040528093929190818152602001838380828437600081840152601f19601f820116905080830192505050505050509192919290505050610dd0565b005b6108d9610e1f565b604051808273ffffffffffffffffffffffffffffffffffffffff1673ffffffffffffffffffffffffffffffffffffffff16815260200191505060405180910390f35b600080823b905060008163ffffffff1611915050919050565b606060206040519080825280601f01601f19166020018201604052801561096a5781602001600182028036833780820191505090505b509050600060608473ffffffffffffffffffffffffffffffffffffffff16901b60001b905080825261099f82866014866109b0565b5050505050565b8181840153505050565b60008090505b602083106109dd5780850151848301526020840193506020810190506020830392506109b6565b60008314156109ec5750610a12565b60006001846020036101000a039050801986830151168186850151168187860152505050505b50505050565b606060008060009054906101000a900473ffffffffffffffffffffffffffffffffffffffff1673ffffffffffffffffffffffffffffffffffffffff16639f181b5e6040518163ffffffff1660e01b815260040160206040518083038186803b158015610a8357600080fd5b505afa158015610a97573d6000803e3d6000fd5b505050506040513d6020811015610aad57600080fd5b810190808051906020019092919050505090506000610ace82878688610e48565b90506060816040519080825280601f01601f191660200182016040528015610b055781602001600182028036833780820191505090505b509050600060409050610b19818984610c91565b600181019050610b2a818884610c91565b600181019050610b3b818784610c91565b60018101905060008090506000600190505b858111610c6557610b5c61104f565b610b6582610e98565b90508060c001518015610b815750610b80816040015161091b565b5b15610c56576000610b9682604001518e610d04565b90506000811415610ba8575050610c58565b8380600101945050610bbf85836020015188610d81565b601085019450610bd485836040015188610934565b601485019450610be9858360600151886109a6565b600185019450610bfa858288610cb5565b6020850194508b15610c1c57610c1585836000015188610d81565b6010850194505b8a15610c3857610c3185836080015188610dd0565b6020850194505b8915610c5457610c4d858360a0015188610dd0565b6020850194505b505b505b8080600101915050610b4d565b50610c7560006020840385610cb5565b610c8160208285610cb5565b8295505050505050949350505050565b600080151583151514610ca5576001610ca8565b60005b9050808285015350505050565b606060206040519080825280601f01601f191660200182016040528015610ceb5781602001600182028036833780820191505090505b509050828152610cfe81856020856109b0565b50505050565b60008060405180807f62616c616e63654f662861646472657373290000000000000000000000000000815250601201905060405180910390209050604051818152836004820152602081602483600089620249f0f180610d6357600093505b6000811115610d7157815193505b6020820160405250505092915050565b606060106040519080825280601f01601f191660200182016040528015610db75781602001600182028036833780820191505090505b509050828152610dca81856010856109b0565b50505050565b606060206040519080825280601f01601f191660200182016040528015610e065781602001600182028036833780820191505090505b509050828152610e1981856020856109b0565b50505050565b60008060009054906101000a900473ffffffffffffffffffffffffffffffffffffffff16905090565b6000806040905060038101905060008090508515610e67576020810190505b8315610e74576020810190505b8415610e81576020810190505b604581019050868102820192505050949350505050565b610ea061104f565b6000809054906101000a900473ffffffffffffffffffffffffffffffffffffffff1673ffffffffffffffffffffffffffffffffffffffff16631f85eb3f836040518263ffffffff1660e01b81526004018082815260200191505060e06040518083038186803b158015610f1257600080fd5b505afa158015610f26573d6000803e3d6000fd5b505050506040513d60e0811015610f3c57600080fd5b81019080805190602001909291908051906020019092919080519060200190929190805190602001909291908051906020019092919080519060200190929190805190602001909291905050508760000188602001896040018a6060018b6080018c60a0018d60c001871515151581525087815250878152508760ff1660ff168152508773ffffffffffffffffffffffffffffffffffffffff1673ffffffffffffffffffffffffffffffffffffffff16815250876fffffffffffffffffffffffffffffffff19166fffffffffffffffffffffffffffffffff1916815250876fffffffffffffffffffffffffffffffff19166fffffffffffffffffffffffffffffffff191681525050505050505050919050565b6040518060e0016040528060006fffffffffffffffffffffffffffffffff1916815260200160006fffffffffffffffffffffffffffffffff19168152602001600073ffffffffffffffffffffffffffffffffffffffff168152602001600060ff1681526020016000801916815260200160008019168152602001600015158152509056fea2646970667358221220a5e28a5e66e2adf38f5f10d9cfd50ee929cf52014079389dc139c7ecfeda61ec64736f6c63430006040033",
  "source": "pragma solidity ^0.6.4;\nimport \"./Utils.sol\";\nimport \"./PublicTokens.sol\";\nimport \"./DummyToken.sol\";\n\n\ncontract TokenBalances is Utils {\n    struct Token {\n        bytes16 name; // Name of the token\n        bytes16 symbol; // Symbol of the token\n        address addr; // Address of the token contract\n        uint8 decimals; // decimals of the token\n        bytes32 website; // website of the token\n        bytes32 email; // support email of the token\n        bool isValid; //whether the token is valid or not\n    }\n    PublicTokens pubT;\n\n    constructor(address tokenStorage) public {\n        pubT = PublicTokens(tokenStorage);\n    }\n\n    function getTokenStorage() public view returns (address) {\n        return address(pubT);\n    }\n\n    function getToken(uint256 id) internal view returns (Token memory token) {\n        (\n            token.name,\n            token.symbol,\n            token.addr,\n            token.decimals,\n            token.website,\n            token.email,\n            token.isValid\n        ) = pubT.pubTokens(id);\n    }\n\n    function numBytesEstimate(\n        uint256 tokenCount,\n        bool name,\n        bool email,\n        bool website\n    ) internal pure returns (uint256) {\n        uint256 bufferSize = 32 + 32; //set total number of bytes, total number of validTokens at the end\n        bufferSize += 3; //set name, website, email\n        uint256 iterCount = 0;\n        if (name) iterCount += 32;\n        if (website) iterCount += 32;\n        if (email) iterCount += 32;\n        iterCount += 69;\n        return bufferSize + iterCount * tokenCount;\n    }\n\n    function getAllBalance(address _owner, bool name, bool website, bool email)\n        public\n        returns (bytes memory)\n    {\n        uint256 count = pubT.tokenCount();\n        uint256 estimatedBufferSize = numBytesEstimate(\n            count,\n            name,\n            email,\n            website\n        );\n        bytes memory result = new bytes(estimatedBufferSize);\n        uint256 offset = 32 + 32; //set total number of bytes, total number of validTokens at the end\n        copyBool(offset, name, result);\n        offset += 1;\n        copyBool(offset, website, result);\n        offset += 1;\n        copyBool(offset, email, result);\n        offset += 1;\n        uint256 numValidTokens = 0;\n        for (uint256 i = 1; i <= count; i++) {\n            Token memory token = getToken(i);\n            if (token.isValid && isContract(token.addr)) {\n                uint256 balance = getTokenBalance(token.addr, _owner);\n                if (balance == 0) continue;\n                numValidTokens++;\n                copyBytes16(offset, token.symbol, result);\n                offset += 16;\n                copyAddress(offset, token.addr, result);\n                offset += 20;\n                copyUint8(offset, token.decimals, result);\n                offset += 1;\n                copyUint(offset, balance, result);\n                offset += 32;\n                if (name) {\n                    copyBytes16(offset, token.name, result);\n                    offset += 16;\n                }\n                if (website) {\n                    copyBytes32(offset, token.website, result);\n                    offset += 32;\n                }\n                if (email) {\n                    copyBytes32(offset, token.email, result);\n                    offset += 32;\n                }\n            }\n        }\n        copyUint(0, offset - 32, result);\n        copyUint(32, numValidTokens, result);\n        return result;\n    }\n}\n",
  "sourcePath": "/home/kvhnuke/GitHub/utility-contracts/contracts/token-balances/TokenBalances.sol",
  "compiler": {
    "name": "solc",
    "version": "0.6.4+commit.1dca32f3.Emscripten.clang"
  },
  "schemaVersion": "3.1.0",
  "updatedAt": "2020-04-30T07:54:59.215Z",
  "devdoc": {
    "methods": {}
  },
  "userdoc": {
    "methods": {}
  }
}