{
  "contractName": "TokenBalances",
  "abi": [
    {
      "inputs": [
        {
          "name": "tokenStorage",
          "type": "address"
        }
      ],
      "payable": false,
      "stateMutability": "nonpayable",
      "type": "constructor"
    },
    {
      "constant": true,
      "inputs": [],
      "name": "getTokenStorage",
      "outputs": [
        {
          "name": "",
          "type": "address"
        }
      ],
      "payable": false,
      "stateMutability": "view",
      "type": "function"
    },
    {
      "constant": true,
      "inputs": [
        {
          "name": "_owner",
          "type": "address"
        },
        {
          "name": "name",
          "type": "bool"
        },
        {
          "name": "website",
          "type": "bool"
        },
        {
          "name": "email",
          "type": "bool"
        },
        {
          "name": "_count",
          "type": "uint256"
        }
      ],
      "name": "getAllBalance",
      "outputs": [
        {
          "name": "",
          "type": "bytes"
        }
      ],
      "payable": false,
      "stateMutability": "view",
      "type": "function"
    }
  ],
  "bytecode": "0x608060405234801561001057600080fd5b506040516020806109cf83398101806040528101908080519060200190929190505050806000806101000a81548173ffffffffffffffffffffffffffffffffffffffff021916908373ffffffffffffffffffffffffffffffffffffffff1602179055505061094c806100836000396000f30060806040526004361061004c576000357c0100000000000000000000000000000000000000000000000000000000900463ffffffff16806380f4ae5c14610051578063f6333d911461013b575b600080fd5b34801561005d57600080fd5b506100c0600480360381019080803573ffffffffffffffffffffffffffffffffffffffff16906020019092919080351515906020019092919080351515906020019092919080351515906020019092919080359060200190929190505050610192565b6040518080602001828103825283818151815260200191508051906020019080838360005b838110156101005780820151818401526020810190506100e5565b50505050905090810190601f16801561012d5780820380516001836020036101000a031916815260200191505b509250505060405180910390f35b34801561014757600080fd5b5061015061054e565b604051808273ffffffffffffffffffffffffffffffffffffffff1673ffffffffffffffffffffffffffffffffffffffff16815260200191505060405180910390f35b6060600080606060008060006101a661088d565b606060008e975060008b141561027d576000809054906101000a900473ffffffffffffffffffffffffffffffffffffffff1673ffffffffffffffffffffffffffffffffffffffff16639f181b5e6040518163ffffffff167c0100000000000000000000000000000000000000000000000000000000028152600401602060405180830381600087803b15801561023b57600080fd5b505af115801561024f573d6000803e3d6000fd5b505050506040513d602081101561026557600080fd5b81019080805190602001909291905050509850610281565b8a98505b600189016040519080825280602002602001820160405280156102b35781602001602082028038833980820191505090505b5096506021955060038601955060009450600193505b888411151561038c576102db84610577565b92508260e0015180156102f757506102f6836040015161077d565b5b1561035a576001878581518110151561030c57fe5b906020019060200201901515908115158152505084806001019550508d15610335576010860195505b8c15610342576020860195505b8b1561034f576020860195505b60498601955061037f565b6000878581518110151561036a57fe5b90602001906020020190151590811515815250505b83806001019450506102c9565b856040519080825280601f01601f1916602001820160405280156103bf5781602001602082028038833980820191505090505b5091508590506103d181600184610796565b6001810390506103e28186846107ba565b6020810390506103f3818f84610796565b600181039050610404818e84610796565b600181039050610415818d84610796565b600181039050600193505b888411151561053957868481518110151561043757fe5b90602001906020020151151561044c5761052c565b61045584610577565b9250610466818460200151846107c4565b60108103905061047b818460400151846107e9565b60148103905061049681846060015163ffffffff16846107ba565b6004810390506104ae81846080015160ff16846107ba565b6001810390506104d1816104cb85604001518b87606001516107f3565b846107ba565b6020810390508d156104f3576104ec818460000151846107c4565b6010810390505b8c1561050f57610508818460a001518461086b565b6020810390505b8b1561052b57610524818460c001518461086b565b6020810390505b5b8380600101945050610420565b81995050505050505050505095945050505050565b60008060009054906101000a900473ffffffffffffffffffffffffffffffffffffffff16905090565b61057f61088d565b6000809054906101000a900473ffffffffffffffffffffffffffffffffffffffff1673ffffffffffffffffffffffffffffffffffffffff16631f85eb3f836040518263ffffffff167c01000000000000000000000000000000000000000000000000000000000281526004018082815260200191505061010060405180830381600087803b15801561061057600080fd5b505af1158015610624573d6000803e3d6000fd5b505050506040513d61010081101561063b57600080fd5b81019080805190602001909291908051906020019092919080519060200190929190805190602001909291908051906020019092919080519060200190929190805190602001909291908051906020019092919050505088600001896020018a6040018b6060018c6080018d60a0018e60c0018f60e00188151515158152508860001916600019168152508860001916600019168152508860ff1660ff168152508863ffffffff1663ffffffff168152508873ffffffffffffffffffffffffffffffffffffffff1673ffffffffffffffffffffffffffffffffffffffff16815250886fffffffffffffffffffffffffffffffff19166fffffffffffffffffffffffffffffffff1916815250886fffffffffffffffffffffffffffffffff19166fffffffffffffffffffffffffffffffff19168152505050505050505050919050565b600080823b905060008163ffffffff1611915050919050565b6000801515831515146107aa5760016107ad565b60005b9050808483015250505050565b8183820152505050565b600060105b83821a8260100186850101536001820191508082106107c9575050505050565b8183820152505050565b60008060405180807f62616c616e63654f66286164647265737329000000000000000000000000000081525060120190506040518091039020905060405181815284600482015260208160188360008a54613a98f1600081141561085657600093505b81519350602082016040525050509392505050565b600060205b83821a828685010153600182019150808210610870575050505050565b6101006040519081016040528060006fffffffffffffffffffffffffffffffff1916815260200160006fffffffffffffffffffffffffffffffff19168152602001600073ffffffffffffffffffffffffffffffffffffffff168152602001600063ffffffff168152602001600060ff168152602001600080191681526020016000801916815260200160001515815250905600a165627a7a72305820388656fec9e13a8f0339ecc506d620ee99cfee7d1042080c63ae10aa9a7f94ef0029",
  "source": "pragma solidity ^0.4.24;\nimport \"./Seriality/Seriality.sol\";\nimport \"./PublicTokens.sol\";\nimport \"./DummyToken.sol\";\ncontract TokenBalances is Seriality{\n    struct Token {\n        bytes16 name; // Name of the token\n        bytes16 symbol;  // Symbol of the token\n        address addr; // Address of the token contract\n        uint32 erc; // token erc ERC-20, ERC-777..etc\n        uint8 decimals; // decimals of the token\n        bytes32 website;   // website of the token\n        bytes32 email; // support email of the token\n        bool isValid; //whether the token is valid or not\n    }\n    PublicTokens pubT;\n    constructor(address tokenStorage) public {\n        pubT = PublicTokens(tokenStorage);\n    }\n    function getTokenStorage() public view returns (address){\n        return pubT;\n    }\n    function isContract(address addr) internal view returns (bool) {\n        uint32 size;\n        assembly {\n            size := extcodesize(addr)\n        }\n        return size > 0;\n    }\n    function getToken(uint id) internal view returns (Token token) {\n        (token.name, token.symbol, token.addr, token.erc, token.decimals, token.website, token.email, token.isValid) = pubT.pubTokens(id);\n    }\n    function getTokenBalance(address tokenAddr, address addr, uint32 erc) internal view returns (uint bal) {\n        bytes4 sig = bytes4(keccak256(\"balanceOf(address)\"));\n        assembly {\n            // move pointer to free memory spot\n            let ptr := mload(0x40)\n            // put function sig at memory spot\n            mstore(ptr,sig)\n            // append argument after function sig\n            mstore(add(ptr,0x04), addr)\n\n            let result := call(\n              15000, // gas limit\n              sload(tokenAddr),  // to addr. append var to _slot to access storage variable\n              0, // not transfer any ether\n              ptr, // Inputs are stored at location ptr\n              0x18, // Inputs are 24 bytes long\n              ptr,  //Store output over input\n              0x20) //Outputs are 32 bytes long\n\n             if eq(result, 0) {\n                 bal := 0\n             }\n\n            bal := mload(ptr) // Assign output to answer var\n            mstore(0x40,add(ptr,0x20)) // Set storage pointer to new space\n        }\n    }\n    function getAllBalance(address _owner, bool name, bool website, bool email, uint _count) public view returns (bytes) {\n        uint count;\n        address tOwner = _owner;\n        if(_count == 0) count = pubT.tokenCount();\n\t\telse count = _count;\n        bool[] memory validTokens = new bool[](count+1);\n        uint bufferSize = 33; //assign 32 bytes to set the total number of tokens + define start\n        bufferSize += 3; //set name, website, email\n        uint countValidTokens = 0;\n        for(uint i = 1; i <= count; i++){\n            Token memory token = getToken(i);\n            if(token.isValid && isContract(token.addr)){\n                validTokens[i] = true;\n                countValidTokens++;\n                if(name) bufferSize += 16;\n                if(website) bufferSize += 32;\n                if(email) bufferSize += 32;\n                bufferSize += 73; // address (20) + erc(4) + symbol(16) + balance(32) + decimals(1)\n    \t\t} else {\n                validTokens[i] = false;\n            }\n        }\n        bytes memory result = new bytes(bufferSize);\n        uint offset = bufferSize;\n    \t//serialize\n        boolToBytes(offset, true, result); \n        offset -= 1;\n        uintToBytes(offset, countValidTokens, result); \n        offset -= 32;\n        boolToBytes(offset, name, result); \n        offset -= 1;\n        boolToBytes(offset, website, result); \n        offset -= 1;\n        boolToBytes(offset, email, result); \n        offset -= 1;\n        for(i = 1; i <= count; i++){\n            if(!validTokens[i]) continue;\n            token = getToken(i);\n            bytes16ToBytesR(offset, token.symbol, result); \n            offset -= 16;\n            addressToBytes(offset, token.addr, result); \n            offset -= 20;\n            uintToBytes(offset, token.erc, result); \n            offset -= 4;\n            uintToBytes(offset, token.decimals, result); \n            offset -= 1;\n            uintToBytes(offset, getTokenBalance(token.addr, tOwner, token.erc), result); \n            offset -= 32;\n            if(name){\n                bytes16ToBytesR(offset, token.name, result); \n                offset -= 16;\n    \t\t}\n            if(website) {\n                bytes32ToBytesR(offset, token.website, result); \n                offset -= 32;\n    \t\t}\n            if(email) {\n                bytes32ToBytesR(offset, token.email, result); \n                offset -= 32;\n    \t\t}\n        }\n        return result;\n    }\n}",
  "sourcePath": "/home/kvhnuke/GitHub/utility-contracts/contracts/token-balances/TokenBalances.sol",
  "compiler": {
    "name": "solc",
    "version": "0.4.24+commit.e67f0147.Emscripten.clang"
  },
  "schemaVersion": "2.0.1",
  "updatedAt": "2018-09-25T04:39:58.045Z"
}