{
  "contractName": "Utils",
  "abi": [
    {
      "inputs": [
        {
          "internalType": "address",
          "name": "addr",
          "type": "address"
        }
      ],
      "name": "isContract",
      "outputs": [
        {
          "internalType": "bool",
          "name": "",
          "type": "bool"
        }
      ],
      "stateMutability": "view",
      "type": "function"
    },
    {
      "inputs": [
        {
          "internalType": "bytes",
          "name": "src",
          "type": "bytes"
        },
        {
          "internalType": "uint256",
          "name": "_offst",
          "type": "uint256"
        },
        {
          "internalType": "uint256",
          "name": "len",
          "type": "uint256"
        },
        {
          "internalType": "bytes",
          "name": "result",
          "type": "bytes"
        }
      ],
      "name": "memcpy",
      "outputs": [],
      "stateMutability": "pure",
      "type": "function"
    },
    {
      "inputs": [
        {
          "internalType": "uint256",
          "name": "_offst",
          "type": "uint256"
        },
        {
          "internalType": "bool",
          "name": "_input",
          "type": "bool"
        },
        {
          "internalType": "bytes",
          "name": "result",
          "type": "bytes"
        }
      ],
      "name": "copyBool",
      "outputs": [],
      "stateMutability": "pure",
      "type": "function"
    },
    {
      "inputs": [
        {
          "internalType": "uint256",
          "name": "_offst",
          "type": "uint256"
        },
        {
          "internalType": "bytes16",
          "name": "_input",
          "type": "bytes16"
        },
        {
          "internalType": "bytes",
          "name": "result",
          "type": "bytes"
        }
      ],
      "name": "copyBytes16",
      "outputs": [],
      "stateMutability": "pure",
      "type": "function"
    },
    {
      "inputs": [
        {
          "internalType": "uint256",
          "name": "_offst",
          "type": "uint256"
        },
        {
          "internalType": "bytes32",
          "name": "_input",
          "type": "bytes32"
        },
        {
          "internalType": "bytes",
          "name": "result",
          "type": "bytes"
        }
      ],
      "name": "copyBytes32",
      "outputs": [],
      "stateMutability": "pure",
      "type": "function"
    },
    {
      "inputs": [
        {
          "internalType": "uint256",
          "name": "_offst",
          "type": "uint256"
        },
        {
          "internalType": "uint256",
          "name": "_input",
          "type": "uint256"
        },
        {
          "internalType": "bytes",
          "name": "result",
          "type": "bytes"
        }
      ],
      "name": "copyUint",
      "outputs": [],
      "stateMutability": "pure",
      "type": "function"
    },
    {
      "inputs": [
        {
          "internalType": "uint256",
          "name": "_offst",
          "type": "uint256"
        },
        {
          "internalType": "uint8",
          "name": "_input",
          "type": "uint8"
        },
        {
          "internalType": "bytes",
          "name": "result",
          "type": "bytes"
        }
      ],
      "name": "copyUint8",
      "outputs": [],
      "stateMutability": "pure",
      "type": "function"
    },
    {
      "inputs": [
        {
          "internalType": "uint256",
          "name": "_offst",
          "type": "uint256"
        },
        {
          "internalType": "address",
          "name": "_input",
          "type": "address"
        },
        {
          "internalType": "bytes",
          "name": "result",
          "type": "bytes"
        }
      ],
      "name": "copyAddress",
      "outputs": [],
      "stateMutability": "pure",
      "type": "function"
    },
    {
      "inputs": [
        {
          "internalType": "address",
          "name": "tokenAddr",
          "type": "address"
        },
        {
          "internalType": "address",
          "name": "addr",
          "type": "address"
        }
      ],
      "name": "getTokenBalance",
      "outputs": [
        {
          "internalType": "uint256",
          "name": "bal",
          "type": "uint256"
        }
      ],
      "stateMutability": "nonpayable",
      "type": "function"
    }
  ],
  "bytecode": "0x608060405234801561001057600080fd5b50610a9b806100206000396000f3fe608060405234801561001057600080fd5b50600436106100935760003560e01c8063822de36d11610066578063822de36d14610411578063b644331d146104e2578063c489744b146105b1578063d68eb36c14610629578063f404b7061461070b57610093565b806316279055146100985780631892154b146100f457806320d2da85146101d9578063407c280d146102ab575b600080fd5b6100da600480360360208110156100ae57600080fd5b81019080803573ffffffffffffffffffffffffffffffffffffffff1690602001909291905050506107da565b604051808215151515815260200191505060405180910390f35b6101d76004803603606081101561010a57600080fd5b8101908080359060200190929190803573ffffffffffffffffffffffffffffffffffffffff1690602001909291908035906020019064010000000081111561015157600080fd5b82018360208201111561016357600080fd5b8035906020019184600183028401116401000000008311171561018557600080fd5b91908080601f016020809104026020016040519081016040528093929190818152602001838380828437600081840152601f19601f8201169050808301925050505050505091929192905050506107f3565b005b6102a9600480360360608110156101ef57600080fd5b8101908080359060200190929190803560ff1690602001909291908035906020019064010000000081111561022357600080fd5b82018360208201111561023557600080fd5b8035906020019184600183028401116401000000008311171561025757600080fd5b91908080601f016020809104026020016040519081016040528093929190818152602001838380828437600081840152601f19601f820116905080830192505050505050509192919290505050610865565b005b61040f600480360360808110156102c157600080fd5b81019080803590602001906401000000008111156102de57600080fd5b8201836020820111156102f057600080fd5b8035906020019184600183028401116401000000008311171561031257600080fd5b91908080601f016020809104026020016040519081016040528093929190818152602001838380828437600081840152601f19601f82011690508083019250505050505050919291929080359060200190929190803590602001909291908035906020019064010000000081111561038957600080fd5b82018360208201111561039b57600080fd5b803590602001918460018302840111640100000000831117156103bd57600080fd5b91908080601f016020809104026020016040519081016040528093929190818152602001838380828437600081840152601f19601f82011690508083019250505050505050919291929050505061086f565b005b6104e06004803603606081101561042757600080fd5b81019080803590602001909291908035151590602001909291908035906020019064010000000081111561045a57600080fd5b82018360208201111561046c57600080fd5b8035906020019184600183028401116401000000008311171561048e57600080fd5b91908080601f016020809104026020016040519081016040528093929190818152602001838380828437600081840152601f19601f8201169050808301925050505050505091929192905050506108d7565b005b6105af600480360360608110156104f857600080fd5b8101908080359060200190929190803590602001909291908035906020019064010000000081111561052957600080fd5b82018360208201111561053b57600080fd5b8035906020019184600183028401116401000000008311171561055d57600080fd5b91908080601f016020809104026020016040519081016040528093929190818152602001838380828437600081840152601f19601f8201169050808301925050505050505091929192905050506108fb565b005b610613600480360360408110156105c757600080fd5b81019080803573ffffffffffffffffffffffffffffffffffffffff169060200190929190803573ffffffffffffffffffffffffffffffffffffffff16906020019092919050505061094a565b6040518082815260200191505060405180910390f35b6107096004803603606081101561063f57600080fd5b810190808035906020019092919080356fffffffffffffffffffffffffffffffff191690602001909291908035906020019064010000000081111561068357600080fd5b82018360208201111561069557600080fd5b803590602001918460018302840111640100000000831117156106b757600080fd5b91908080601f016020809104026020016040519081016040528093929190818152602001838380828437600081840152601f19601f8201169050808301925050505050505091929192905050506109c7565b005b6107d86004803603606081101561072157600080fd5b8101908080359060200190929190803590602001909291908035906020019064010000000081111561075257600080fd5b82018360208201111561076457600080fd5b8035906020019184600183028401116401000000008311171561078657600080fd5b91908080601f016020809104026020016040519081016040528093929190818152602001838380828437600081840152601f19601f820116905080830192505050505050509192919290505050610a16565b005b600080823b905060008163ffffffff1611915050919050565b606060206040519080825280601f01601f1916602001820160405280156108295781602001600182028036833780820191505090505b509050600060608473ffffffffffffffffffffffffffffffffffffffff16901b60001b905080825261085e828660148661086f565b5050505050565b8181840153505050565b60008090505b6020831061089c578085015184830152602084019350602081019050602083039250610875565b60008314156108ab57506108d1565b60006001846020036101000a039050801986830151168186850151168187860152505050505b50505050565b6000801515831515146108eb5760016108ee565b60005b9050808285015350505050565b606060206040519080825280601f01601f1916602001820160405280156109315781602001600182028036833780820191505090505b509050828152610944818560208561086f565b50505050565b60008060405180807f62616c616e63654f662861646472657373290000000000000000000000000000815250601201905060405180910390209050604051818152836004820152602081602483600089620249f0f1806109a957600093505b60008111156109b757815193505b6020820160405250505092915050565b606060106040519080825280601f01601f1916602001820160405280156109fd5781602001600182028036833780820191505090505b509050828152610a10818560108561086f565b50505050565b606060206040519080825280601f01601f191660200182016040528015610a4c5781602001600182028036833780820191505090505b509050828152610a5f818560208561086f565b5050505056fea26469706673582212207e26e5a753b5bec3c7f46da2fc09a5e22d1e306b3b121e0bcbc645d6fcec918564736f6c63430006040033",
  "source": "pragma solidity ^0.6.4;\n\n\ncontract Utils {\n    function isContract(address addr) public view returns (bool) {\n        uint32 size;\n        assembly {\n            size := extcodesize(addr)\n        }\n        return size > 0;\n    }\n\n    function memcpy(\n        bytes memory src,\n        uint256 _offst,\n        uint256 len,\n        bytes memory result\n    ) public pure {\n        uint256 srcOffst = 0;\n        for (; len >= 32; len -= 32) {\n            assembly {\n                mstore(add(result, _offst), mload(add(src, srcOffst)))\n            }\n            _offst += 32;\n            srcOffst += 32;\n        }\n        if (len == 0) return;\n        uint256 mask = 256**(32 - len) - 1;\n        assembly {\n            let srcpart := and(mload(add(srcOffst, src)), not(mask))\n            let destpart := and(mload(add(result, _offst)), mask)\n            mstore(add(result, _offst), srcpart)\n        }\n    }\n\n    function copyBool(uint256 _offst, bool _input, bytes memory result)\n        public\n        pure\n    {\n        uint8 x = _input == false ? 0 : 1;\n        assembly {\n            mstore8(add(_offst, result), x)\n        }\n    }\n\n    function copyBytes16(uint256 _offst, bytes16 _input, bytes memory result)\n        public\n        pure\n    {\n        bytes memory b = new bytes(16);\n        assembly {\n            mstore(b, _input)\n        }\n        memcpy(b, _offst, 16, result);\n    }\n\n    function copyBytes32(uint256 _offst, bytes32 _input, bytes memory result)\n        public\n        pure\n    {\n        bytes memory b = new bytes(32);\n        assembly {\n            mstore(b, _input)\n        }\n        memcpy(b, _offst, 32, result);\n    }\n\n    function copyUint(uint256 _offst, uint256 _input, bytes memory result)\n        public\n        pure\n    {\n        bytes memory b = new bytes(32);\n        assembly {\n            mstore(b, _input)\n        }\n        memcpy(b, _offst, 32, result);\n    }\n\n    function copyUint8(uint256 _offst, uint8 _input, bytes memory result)\n        public\n        pure\n    {\n        assembly {\n            mstore8(add(_offst, result), _input)\n        }\n    }\n\n    function copyAddress(uint256 _offst, address _input, bytes memory result)\n        public\n        pure\n    {\n        bytes memory b = new bytes(32);\n        bytes32 _address = bytes32(uint256(_input) << 96);\n        assembly {\n            mstore(b, _address)\n        }\n        memcpy(b, _offst, 20, result);\n    }\n\n    function getTokenBalance(address tokenAddr, address addr)\n        public\n        returns (uint256 bal)\n    {\n        bytes4 sig = bytes4(keccak256(\"balanceOf(address)\"));\n        assembly {\n            // move pointer to free memory spot\n            let ptr := mload(0x40)\n            // put function sig at memory spot\n            mstore(ptr, sig)\n            // append argument after function sig\n            mstore(add(ptr, 0x04), addr)\n\n            let result := call(\n                150000, // gas limit\n                tokenAddr, // to addr. append var to _slot to access storage variable\n                0, // not transfer any ether\n                ptr, // Inputs are stored at location ptr\n                0x24, // Inputs are 36 bytes long\n                ptr, //Store output over input\n                0x20\n            ) //Outputs are 32 bytes long\n\n            if iszero(result) {\n                bal := 0 // return 0 on error and 0 balance\n            }\n            if gt(result, 0) {\n                bal := mload(ptr) // Assign output to answer var\n            }\n            mstore(0x40, add(ptr, 0x20)) // Set storage pointer to new space\n        }\n    }\n}\n",
  "sourcePath": "/home/kvhnuke/GitHub/utility-contracts/contracts/token-balances/Utils.sol",
  "compiler": {
    "name": "solc",
    "version": "0.6.4+commit.1dca32f3.Emscripten.clang"
  },
  "schemaVersion": "3.1.0",
  "updatedAt": "2020-04-30T07:54:59.227Z",
  "devdoc": {
    "methods": {}
  },
  "userdoc": {
    "methods": {}
  }
}